:100000007FC10000A4C10000A2C10000A0C1000087
:100010009EC100009CC100009AC1000098C1000070
:1000200096C1000094C100000C94160A90C1000013
:100030008EC100008CC100008AC1000088C1000090
:1000400086C1000084C1000082C1000080C10000A0
:100050007EC100000C9419107AC1000078C1000024
:1000600076C1000074C1000072C1000070C10000C0
:100070006EC100006CC100006AC1000068C10000D0
:1000800066C1000064C1000062C1000060C10000E0
:100090005EC100005CC100005AC1000058C10000F0
:1000A00056C1000054C1000052C100004608AF080C
:1000B0007B09E1087B09700882077B092708930800
:1000C0002E095509040309041C03300030003000D8
:1000D00030003000300030003000300030003000A0
:1000E0003000300020035400480045002000470045
:1000F00052005500420020005300570049005400B0
:10010000430048001A0355004E00470020005300EA
:100110004F004600540057004100520045000902BC
:10012000200001010080320904000002080650008E
:10013000070581024000000705020240000012018D
:100140000002000000400912152000100102030106
:10015000008003021F000000372E3437544845202A
:10016000475255422053574954434820554E472043
:10017000534F4654424F4F5454484953202020086F
:100180000000800A5A0B5A0B0000800A5A0B00002C
:10019000000000005357495443482020475242234F
:1001A0000000C00A5A0B5A0B0000C00A5A0B030089
:1001B00000000000412E0065006E00740072000F08
:1001C000000B6900650073002E00740078000000C9
:1001D00074000000454E545249457E31545854260F
:1001E0000000A00A5A0B5A0B0000A00A5A0B040088
:1001F00000000000412E0062006F006F0074000FCD
:100200000014700069006E0073002E00740000007E
:1002100078007400424F4F5450497E31545854274F
:100220000000800A5A0B5A0B0000800A5A0B050086
:100230001200000055AAF8FFFF00F0FFFFFFFFEBE0
:100240003C906D6B66732E666174000202010001C2
:1002500010004400F80100200040000000000000F1
:1002600000000080002955198519424F4F54544809
:10027000495320202046415431322020200E1FBEF9
:100280005B7CAC22C0740B56B40EBB0700CD105E75
:10029000EBF032E4CD16CD19EBFE5468697320699A
:1002A00073206E6F74206120626F6F7461626C6581
:1002B000206469736B2E2020506C65617365206922
:1002C0006E73657274206120626F6F7461626C6519
:1002D00020666C6F70707920616E640D0A707265B3
:1002E000737320616E79206B657920746F2074724E
:1002F0007920616761696E202E2E2E200D0A000084
:1003000011241FBECFEFDAE0DEBFCDBF20E030E02A
:1003100080E80FB6F89480936100209361000FBECF
:1003200081E011E0A0E0B1E0EAEDF4E202C0059066
:100330000D92A836B107D9F723E0A8E6B1E001C0D5
:100340001D92A433B207E1F703D00C946B1258CE80
:100350000E940C0B20E030E080E80FB6F894809308
:100360006100209361000FBE85B7806885BF85BF9F
:100370002BD280E090E00895559A5D9A859A8D98E9
:10038000859A8D9884988C9A0E941F0BE2EEF0E07B
:10039000808184608083089580910F038F5F8093B4
:1003A0000F03089582E08093E9009091F10080911D
:1003B000F100833529F481E0953519F480E001C01E
:1003C00081E09091F100923409F081E09091F10088
:1003D000933411F48823A9F08091E8008B7F8093F7
:1003E000E8008091E8008F778093E80091E0909397
:1003F000E9008091EB0080628093EB0090932A03E8
:1004000008958091F100809368018091F1008093BC
:1004100069018091F10080936A018091F1008093DD
:100420006B018091F100809311038091F100809322
:1004300012038091F100809313038091F100809367
:1004400014038091F100882321F081E080930E0352
:1004500002C010920E038091F10080930D038091F1
:100460001003811102C010920D038091F100E5E1AB
:10047000F3E08091F100819383E0E532F807C9F75A
:100480008091E8008B7F8093E8008091E8008F776F
:100490008093E80080910E03813011F48093E9008D
:1004A000DFD4813089F08091EB0080628093EB0093
:1004B00080910E03813011F0E2E001C0E1E0F0E054
:1004C000E75DFC4F81E080830895CF9381E08093C6
:1004D000E900C1E08091EB0085FF09C01092E900BE
:1004E0008091E80083FDF3D4C093E900F3CF82E06C
:1004F0008093E900C2E08091EB0085FF09C0109273
:10050000E9008091E80083FDE2D4C093E900F3CFD5
:1005100081E08093E9008091E80085FD05C080912D
:10052000EB0080FDF8CF34C085E58093F10083E5D2
:100530008093F10092E49093F1008093F100809118
:1005400068018093F100809169018093F1008091AE
:100550006A018093F10080916B018093F10080919A
:1005600011038093F100809112038093F100809138
:1005700013038093F100809114038093F100809124
:1005800025038093F1008091E8008F778093E80045
:10059000CF91089580913003882349F082E08093C1
:1005A000E9008091E80082FF02C0FCDE8ECF089552
:1005B000CF93DF9300D0CDB7DEB72091F1009091BB
:1005C000F100813211F56F3F09F053C0211151C084
:1005D00091114FC08091F10089838091F1008A834D
:1005E00089819A81892B09F044C08091E800877F36
:1005F0008093E8008091E8008E7F8093E8008091EE
:10060000E80080FFFCCF81E035C0813A91F56E3F74
:1006100081F521112EC091112CC08091F1008983A8
:100620008091F1008A8389819A81892B11F58091CB
:10063000E800877F8093E8001092F1008091E80045
:100640008E7F8093E8008091E80080FFFCCF80914E
:10065000E80082FFFCCF8091E8008B7F8093E80068
:100660008091E8008F778093E80081E08093100309
:1006700001C080E00F900F90DF91CF910895CF934C
:10068000DF93C9EED0E081E0888364E381E8A1D7FD
:1006900082E0888364E380E8DF91CF919AC780E0AD
:1006A0000895892B19F581E08093E9008091EB0092
:1006B00080618093EB0092E09093EA001092EA0050
:1006C0008091EB0088608093EB009093E90080912B
:1006D000EB0080618093EB0084E08093EA0010924D
:1006E000EA008091EB0088608093EB0008958330EE
:1006F00021F5613089F050F06230A1F06330E9F407
:100700008CE18093310388EC90E011C084E0809309
:10071000310384EC90E00BC08AE18093310384E0E4
:1007200091E005C080E28093310384EE90E09093E5
:1007300033038093320381E0089580E008958111AE
:1007400001C07EC781E090E00895811102C0CB0115
:1007500080C781E090E00895811101C084C781E0E5
:100760000895CF92DF92EF92FF926A017B0181118F
:1007700008C0A901C701B601FF90EF90DF90CF90AC
:1007800078C781E090E0FF90EF90DF90CF900895E0
:10079000CF92DF92EF92FF926A017B01811108C034
:1007A000A901C701B601FF90EF90DF90CF906AC713
:1007B00081E090E0FF90EF90DF90CF9008952FD6EA
:1007C000DBCD33D6E7DEFDCFFADFFBDFE1EFF0E094
:1007D0008CE180838AE08083108285E080831082B0
:1007E00010821082108210821082108281E0808339
:1007F0000895CF93C82F81111092F1006093F100FA
:100800001092F10080910D03A7DF882321F080E88A
:100810008093F10002C01092F100CC2331F01092CD
:10082000F1001092F1001092F1001092F100CF91BE
:10083000089591E09093F1009AE09093F10090E890
:100840009093F10023E02093F1001092F1001092B8
:10085000F1001092F1001092F1008D3040F0909371
:10086000F1001092F1001092F1001092F100089541
:1008700010922503E6E2F3E01082118212820895BD
:100880000F931F93CF93DF93CDB7DEB762970FB669
:10089000F894DEBF0FBECDBF80911903833108F0FD
:1008A00082E190E799831A82909126039B831C82B0
:1008B0001D821E821F829AE0988719861A861B86DF
:1008C0001C86909127039D87909128039E871F8601
:1008D000188A198A1A8A9E012F5F3F4FF9019E2FAD
:1008E000921B981720F491919093F100F8CF90917A
:1008F000E8009F779093E800409111035091120314
:1009000060911303709114038A019B01081B110964
:10091000210931090093110310931203209313034B
:1009200030931403A5DF81E062960FB6F894DEBF22
:100930000FBECDBFDF91CF911F910F91089581E040
:1009400080932503E6E2F3E082E080838AE38183FB
:100950001282089581E080932503E6E2F3E086E0C9
:10096000808388E281831282089581E08093250349
:10097000E6E2F3E084E080831182128208958091A0
:100980000D03DDDE8230910539F08330910531F0C1
:10099000892B31F46DDF05C0D2DF03C0DBDF01C07E
:1009A000E4DF81E00895CF93DF9300D000D0CDB78E
:1009B000DEB7BE016F5F7F4F80910D03C6DE8230D0
:1009C0009105A9F183309105A1F1892BA1F58C81C5
:1009D0008093F1008B818093F1008A818093F100F4
:1009E00089818093F1001092F1001092F10082E071
:1009F0008093F1001092F1008091E8008F7780934E
:100A0000E8008091110390911203A0911303B0911B
:100A100014030897A109B10980931103909312035D
:100A2000A0931303B093140323DF81E006C087DF94
:100A300003C090DF01C099DF80E00F900F900F900E
:100A40000F90DF91CF91089581E080932503E6E236
:100A5000F3E087E0808387E281831282089581E05A
:100A600080932503E6E2F3E085E0808384E28183DE
:100A7000128208950F931F9380911603837021F4BF
:100A800080911703882319F0EADF80E040C090913D
:100A90001903913608F090E620E531E080E08917EF
:100AA000C9F0883029F0803131F0803231F407C04C
:100AB0002CE631E002C02CE531E0F90102C0E8E5A6
:100AC000F1E09F012F5F3F4FE491E093F1008F5FD2
:100AD000843229F79091E8009F779093E800409145
:100AE00011035091120360911303709114038A0152
:100AF0009B01081B1109210931090093110310936F
:100B000012032093130330931403B2DE81E01F918C
:100B10000F9108951F93CF93DF9300D000D000D0A2
:100B2000CDB7DEB7809117038C83809118038B8338
:100B3000809119038A8380911A03898380911C0311
:100B40008E8380911D038D8310910E03111102C0BD
:100B500086DF56C08091110390911203A091130378
:100B6000B09114030097A105B10541F48D819E81D8
:100B7000892B11F47DDE3CC072DF3AC039E0B695B6
:100B8000A795979587953A95D1F749815A816B81B9
:100B90007C819C0180910D03E4DD8230910551F14F
:100BA0008330910549F1892B49F54D815E8160E0E3
:100BB00070E08091110390911203A0911303B09102
:100BC000140329E0B695A795979587952A95D1F7AF
:100BD000481759076A077B0711F44ADE01C03FDF57
:100BE0001092110310921203109213031092140327
:100BF00011E006C0A4DE03C0ADDE01C0B6DE10E029
:100C0000812F26960FB6F894DEBF0FBECDBFDF91C1
:100C1000CF911F910895CF93DF9300D000D000D0E3
:100C2000CDB7DEB7809117038C83809118038B8337
:100C3000809119038A8380911A03898380911C0310
:100C40008E8380911D038D8380910E03813011F47A
:100C500006DF64C08091110390911203A0911303E9
:100C6000B0911403892B8A2B8B2B49F48D819E81A3
:100C7000892B11F4FDDD01C0F2DE81E050C08091CE
:100C80000D036ADD813011F4DFDE48C0809111036D
:100C900090911203A0911303B091140339E0B6951B
:100CA000A795979587953A95D1F749815A816B8198
:100CB0007C819C0180910D036BDD8230910549F1AF
:100CC0008330910541F1892B41F54D815E8160E0D2
:100CD00070E08091110390911203A0911303B091E1
:100CE000140329E0B695A795979587952A95D1F78E
:100CF000481759076A077B0711F4BADD01C0AFDE58
:100D00001092110310921203109213031092140305
:100D1000B4CF15DE03C01EDE01C027DE80E02696BC
:100D20000FB6F894DEBF0FBECDBFDF91CF9108950F
:100D3000CF93882319F0C0911D0302C0C0911903FD
:100D4000909117039F739C3151F09F33E1F09130E4
:100D500009F082C06FE04DDD8C2F6BDD03C06FE0CA
:100D600048DD34DD8091E8008F778093E800809142
:100D7000110390911203A0911303B09114034097B3
:100D8000A109B1094CC08823D1F0CD3118F46EEF20
:100D90006C0F01C06BE12DDDC83061F58091E8007A
:100DA0008F778093E8008091110390911203A091B6
:100DB0001303B09114030897A109B10930C0CC31D5
:100DC00018F46FEF6C0F01C06BE180E012DDC430EE
:100DD00089F48091E8008F778093E8008091110377
:100DE00090911203A0911303B09114030497A109E9
:100DF000B10915C08C2F1DDDCD30E0F0E7DC80910E
:100E0000E8008F778093E80080911103909112039E
:100E1000A0911303B09114034C97A109B1098093D9
:100E2000110390931203A0931303B093140320DDD6
:100E300081E014C08091E8008F778093E800809172
:100E4000110390911203A0911303B09114038C1B12
:100E50009109A109B109E3CF02DE80E0CF910895A5
:100E6000809115038A3209F4D6CE883209F452CE25
:100E70008B31E9F060F48330B1F018F481111AC0BD
:100E80007ECD823189F08A31A9F480E00FC08532AD
:100E900061F018F48E3159F00DC08F3241F08A356F
:100EA00049F481E003C0ECCCE5CD7DCD41CFE0DC61
:100EB00081E0089581E08093250385E080932603F7
:100EC00080E2809327031092280380E008950F9317
:100ED0001F93CF93DF9300D0CDB7DEB78091E800AA
:100EE0008B7F8093E8001091F1000091F100802F3A
:100EF00090E08C30910508F0FEC1FC01EA5AFF4FEA
:100F00000C942E12103809F0F6C16091F100809116
:100F1000F100813041F0823081F480E2809331032E
:100F20008EE191E005C082E1809331038EE391E090
:100F3000909333038093320304C0D9DB882309F4F0
:100F4000DAC18091F1008091F1008091F1008983F4
:100F50008091F1008A838091E800877F8093E80088
:100F60008091310329813A81482F50E0421753077D
:100F700020F48F7391E021F002C02093310390E0C0
:100F80008091E8008F7E8093E80080913103811189
:100F900004C0913009F04EC037C08091E80084FD54
:100FA000F8CF8091E80080FD08C08091E80084FDC2
:100FB00004C08091D90080FDF4CF81E420913103F9
:100FC0002223B1F08150A1F0E0913203F09133037C
:100FD0009F012F5F3F4F3093330320933203E491FF
:100FE000E093F10020913103215020933103E6CFAB
:100FF0008091E80084FDCDCF8091D90080FFC9CFDA
:101000008091E8008E7FBFCF8091E80084FD12C000
:101010008091E80080FD04C08091D90080FDF8CF68
:101020008091E8008E7F8093E80004C08091D90011
:1010300080FF04C08091E80084FFF8CF8091E80031
:101040008F7E8093E8008091E8008B7F46C0103847
:1010500009F051C18091E800877F8093E80080917A
:1010600030038093F1008091E8008E7F8093E80048
:101070008091E8008F778093E8008091E80082FDFE
:1010800024C08091D90080FDF8CF1FC08091F1006D
:101090008091F100E091F100113809F0CCC080910D
:1010A000E800877F8093E8001092F1001092F10031
:1010B0008091E8008E7F8093E8008091E80082FDB7
:1010C00004C08091D90080FDF8CF8091E8008B7F2B
:1010D0008093E8008091E8008F778093E8001DC13D
:1010E000111109C18091F1009091E30090788F7700
:1010F000892B8093E3008091E800877F8093E8004C
:101100008091E8008E7F8093E8008091E80080FD68
:1011100004C08091D90080FDF8CF8091E300806801
:101120008093E300FAC01111E6C09091F100923073
:1011300008F0E1C08091E800877F8093E8009093F9
:1011400030038091E8008E7F8093E8008091300327
:101150000F900F90DF91CF911F910F9190CA1123A3
:10116000A9F1123009F0C7C08091F1009091F1000F
:101170008111C1C0E091F100EF77E093E900809127
:10118000EB0080FF40C0EE23A9F08091EB0080616E
:101190008093EB0081E090E00E2E01C0880F0A944E
:1011A000EAF78093EA001092EA008091EB008860F1
:1011B0008093EB001092E900F0E0E75DFC4F1082B5
:1011C00031C0112319F0123021F095C08091F10047
:1011D00092C08091F1009091F10081118CC0E0915A
:1011E000F100EF7751F48091EB0080628093EB0087
:1011F0008091E800877F8093E800E093E900809188
:10120000EB0080FD03C01092E90075C08091EB00F7
:1012100080628093EB001092E900F0E0E75DFC4F04
:1012200081E080838091E800877F8093E80080914F
:10123000E8008E7F52CF123821F0103809F05BC0E1
:101240002ECF8091E800877F8093E800EF77F0E071
:10125000E75DFC4F80818093F10028CF113809F0C1
:101260004AC08091F1008091F1009091F100998342
:101270009091F1009A8381113EC08091E800877FB0
:101280008093E80089819A810ADA8093F100809145
:10129000E8008E7F8093E8008091E80082FD15CF02
:1012A0008091D90080FDF8CF10CF113021F56091E9
:1012B000F1008091F1009091F10099839091F100FB
:1012C0009A83811118C08091E800877F8093E8009D
:1012D00089819A81E6D91092E9008091E8008E7F99
:1012E0008093E8008091E80080FD17C08091D900CC
:1012F00080FDF8CF12C0602F812F5AD981110DC007
:101300008091EB0080628093EB008091E800877F02
:101310008093E80081E0809329030F900F90DF9184
:10132000CF911F910F9108957894E8EDF0E08081BE
:101330008F7680838081806980837894089582E1AC
:1013400089BD09B400FEFDCFF8948091D8008F7D4F
:101350008093D80054D18091E0008E7F8093E0008C
:1013600078948091E20081608093E2008091E200B5
:1013700088608093E20008958091D90080FF13C0B7
:1013800080916E0181110FC081E080936E011092F7
:101390006C0180916F019091700182609093700157
:1013A00080936F01CCDF8091D90080FD1BC08091BC
:1013B0006E018130B9F410926E0110923003809169
:1013C0006F019091700184609093700180936F0120
:1013D0008091E00081608093E0008091D80080627D
:1013E0008093D80080916F019091700190FF10C0A0
:1013F00080916F01909170019E7F90937001809316
:101400006F0181E08093EA001092EA0010923003AD
:101410001092E9008091E80083FD59CD0895E7ED31
:10142000F0E08081816080837FCFA6CF1F920F92F2
:101430000FB60F9211242F933F934F935F936F93A7
:101440007F938F939F93AF93BF93EF93FF9380917D
:10145000E10082FF09C08091E20082FF05C08BEFAE
:101460008093E1000E94CC018091E10080FF40C0A8
:101470008091E20080FF3CC080916C018130D9F402
:10148000809130038823B9F08091E2008E7F8093B1
:10149000E2008FEE8093E1008091E2008061809312
:1014A000E20089B58D7F89BD19BC8091D80080622A
:1014B0008093D8001DC08FEE8093E10080916F0172
:1014C0009091700180629093700180936F018EEF14
:1014D0008093E1008091E20080618093E20080913E
:1014E000D80080628093D80089B58D7F89BD19BCF2
:1014F0008091E10084FF29C08091E20084FF25C033
:1015000009B400FE1CC08091D8008F7D8093D80064
:101510008FEE8093E1008091E2008F7E8093E20065
:1015200080916F019091700180649093700180931D
:101530006F018091E20081608093E20006C082E149
:1015400089BD09B400FEFDCFDECF8091E10085FFAB
:101550001AC08091E20085FF16C08091E2008F7E64
:101560008093E2008FED8093E1008091E2008F7D17
:101570008093E20080916F01909170018068909358
:10158000700180936F018091E10083FF11C0809111
:10159000E20083FF0DC087EF8093E10030D080919F
:1015A0006F019091700191609093700180936F0131
:1015B000FF91EF91BF91AF919F918F917F916F912B
:1015C0005F914F913F912F910F900FBE0F901F9001
:1015D0001895EBEEF0E09081916090838093EC00A1
:1015E000EDEEF0E080818270682B60838081826004
:1015F00080838091EE00881F8827881F08951092AD
:10160000E9008091EB0080FD05C01092E90060E3E5
:1016100082E0DFCF80E008958FB7F89497EF94BF12
:101620000FB6F894A895909160009861909360002F
:10163000109260000FBE87FF01C0789408952BC000
:1016400038D0813019F082E090E0089580E090E099
:10165000089541E450E060E070E0FC014083518374
:1016600062837383EDCF8FB18295817091E089277A
:10167000089521D021E030E0882311F020E030E00F
:10168000C9010895CAD021E030E0882311F020E09C
:1016900030E0C901089583D48EEF93E0EDD6813C0C
:1016A00023E0920710F080EC93E073D17CD141D518
:1016B0005BC281E008959F92AF92BF92CF92DF927A
:1016C000EF92FF920F931F93CF93DF9300D0CDB78C
:1016D000DEB76A017B01FE2CEE24FF0C2AD544D232
:1016E0005D98870188E0A82EF894B12CF801003CA1
:1016F000110518F4E15CFD4F07C0EE5FF140EB30DF
:10170000F10530F4EC5CFD4FE491E093F10053C03F
:10171000992493949B0C0C3324E0120761F43ED17E
:1017200089839A838093F100B92C8A818093F10098
:101730000DE314E040C00C3784E0180761F424D1B5
:1017400089839A838093F100B92C8A818093F10078
:101750000DE714E030C0F801F450E03CF10558F416
:10176000EC58FE4FE4910B3624E0120771F67C9999
:10177000CCCFE160CACF01158AE0180748F00ED13E
:10178000965F0817190720F4C8019A501FD30EC09E
:10179000C8019E50803C23E0920710F465D606C035
:1017A000C80192518231910520F423D38093F10036
:1017B00002C01092F1000F5F1F4FB3948FE38B159F
:1017C00008F094CF8091E8008F778093E8007894B8
:1017D0008091E80085FD07C09091EB00892F817012
:1017E00090FDF6CF0CC0AA94A1107ECF2EEFF21A76
:1017F00081E0C81AD10809F074CF5D9A81E00F909A
:101800000F90DF91CF911F910F91FF90EF90DF909C
:10181000CF90BF90AF909F9008955F926F927F920C
:101820008F929F92AF92BF92CF92DF92EF92FF92F0
:101830000F931F93CF93DF93CDB7DEB7C254D10977
:101840000FB6F894DEBF0FBECDBF5A016B01DC2C82
:10185000CC24DD0C0FB1029501705D987E0121E46E
:10186000E20EF11C20EC822E23E0922E360188E05D
:10187000582E8091E80085FD07C09091EB00892FDC
:10188000817090FDF6CF69C0F894011109C0FE0186
:1018900031968091F1008193EE15FF05D1F746C096
:1018A00010E0B3018091F100E1E0F0E0EC0FFD1FEA
:1018B000E10FF11D80839CE7691694E0790621F51C
:1018C000F70180831F5F8091F100E1E0F0E0EC0F11
:1018D000FD1FE10FF11D8083F701818380819181DC
:1018E000813C934018F0F70191828082F70160807B
:1018F0007180C3014ED0B3018EEF93E0D9D553D0A0
:1019000018D432D16DE774E03B01FFEF6F1A7F0A04
:101910001F5F103430F26F537E40603C23E072074B
:1019200028F440E450E0CE010196ABD58091E80068
:101930008B7F8093E8008091E8008F778093E800A8
:1019400078945A94511095CF8EEFD81A91E0A91A35
:10195000B10809F08BCF5D9A81E0CE5BDF4F0FB607
:10196000F894DEBF0FBECDBFDF91CF911F910F91D5
:10197000FF90EF90DF90CF90BF90AF909F908F90AF
:101980007F906F905F9008958091710190917201A6
:10199000089590937201809371010895809173016D
:1019A0009091740108959F92AF92BF92CF92DF926F
:1019B000EF92FF920F931F93CF93DF93EFEDF2E03F
:1019C0004FEB52E02FE932E08FE792E0CFE5D2E033
:1019D0000FE312E011921192DA011D921D92AD01F6
:1019E000D9011D921D929D01DC011D921D92CD0118
:1019F00019921992D8011D921D928D01B2E0EF3F0C
:101A0000FB0741F7C0907101D09072019924939423
:101A1000C0E0D0E0ADEFAA2EBB24BA948E010C1525
:101A20001D0509F495C078016FEFE61AF60AC801A2
:101A30001BD58D3021F08A3051F08701F0CFCE14C4
:101A4000DF0409F485C0780182E0E80EF11CCE01C4
:101A50000BD5833279F5CE01019606D5813381F419
:101A6000892D90E0880F991FFC01E152FD4F9E01E6
:101A70002D5F3F4F31832083FC01E154FD4F12C0A5
:101A8000823309F05DC0892D90E0880F991FFC0119
:101A9000E156FD4F9E012D5F3F4F31832083FC01B6
:101AA000E158FD4F95012C1B3D0B020F131F1183B5
:101AB000008346C0892D90E0880F991FFC01E15AF0
:101AC000FD4FD183C083FC01E15CFD4F0C1B1D0B5E
:101AD000118300839394AFE0A915D0F1892D90E094
:101AE0009C0121503109220F331FF901E152FD4FB2
:101AF00040815181880F991FFC01E152FD4F5183B4
:101B00004083F901E154FD4F40815181FC01E154D2
:101B1000FD4F51834083F901E156FD4F40815181D2
:101B2000FC01E156FD4F51834083F901E158FD4F1F
:101B300020813181FC01E158FD4F3183208303C0B6
:101B4000BFE0B91528F0EC14FD0411F0E70166CFF1
:101B5000DF91CF911F910F91FF90EF90DF90CF9089
:101B6000BF90AF909F9008956F927F928F929F92B7
:101B7000AF92BF92CF92DF92EF92FF920F931F939B
:101B8000CF93DF93CDB7DEB7C055D1090FB6F89428
:101B9000DEBF0FBECDBF98E1E0E0F1E0DE015E9672
:101BA00001900D929A95E1F79DE1E8E1F1E0DE0107
:101BB000119601900D929A95E1F797E1E5E3F1E036
:101BC000DE01D69601900D929A95E1F740914C0175
:101BD00050914D0160914E0170914F0161964CAF53
:101BE0005DAF6EAF7FAF6197882361F0082F10E083
:101BF000000F111FF801E15CFD4FA080B180A1141E
:101C0000B10449F41092760110927501109274019A
:101C100010927301C5C010927601109275019E0159
:101C2000225E3F4FA7E7B1E0F901AF01421B530B22
:101C30008191882311F08D93F8CF509376014093D2
:101C40007501F801E154FD4F80809180C12CD12CA9
:101C5000C80181529D4F3C01E0907501F0907601E2
:101C6000C814D904A1F0C70101969093760180931E
:101C70007501F301808191818C0D9D1DF5D3F701D4
:101C8000E958FE4F8083FFEFCF1ADF0AE5CFD70177
:101C9000A958BE4FFE013196EE1AFF0A97012E0F8A
:101CA0003F1F8191882311F08D93F8CF30937601F7
:101CB00020937501F801E158FD4F80809180C12C7F
:101CC000D12CC80181569D4F3C01E0907501F090E8
:101CD0007601C814D904A1F0C7010196909376014A
:101CE00080937501F301808191818C0D9D1DBCD382
:101CF000F701E958FE4F8083FFEFCF1ADF0AE5CFE7
:101D0000D701A958BE4FFE01F696EE1AFF0A9701B9
:101D10002E0F3F1F8191882311F08D93F8CF3093C0
:101D2000760120937501E12CF12CC801815A9D4F59
:101D30004C01C0907501D090760186010F5F1F4F56
:101D40001093760100937501F401808191818E0DCD
:101D50009F1D8AD3F601E958FE4F8083FFEFEF1AEB
:101D6000FF0AAE14BF0429F7D801A958BE4FFE01DF
:101D7000E35BFF4F0E1B1F0BC8018E0F9F1F2191AE
:101D8000222311F02D93F8CF909376018093750163
:101D9000845A9B4D8E5791429093740180937301A6
:101DA000C05BDF4F0FB6F894DEBF0FBECDBFDF9133
:101DB000CF911F910F91FF90EF90DF90CF90BF9048
:101DC000AF909F908F907F906F90089520917501B4
:101DD000309176018217930728F4FC01E958FE4FF1
:101DE00080810895821B930BFC01E258FE4D849183
:101DF00008950F931F93CF93DF93CDB7DEB72F973F
:101E00000FB6F894DEBF0FBECDBF8C01B3D1892BC6
:101E100069F48FE0E0E5F1E0DE01119601900D92AA
:101E20008A95E1F70E30110568F014C088E0EFE5FF
:101E3000F1E0DE01119601900D928A95E1F70730ED
:101E4000110540F4E1E0F0E0EC0FFD1FE00FF11FA1
:101E500080810CC089D121E130E0201B310B02C010
:101E6000969587952A95E2F78170805D2F960FB63B
:101E7000F894DEBF0FBECDBFDF91CF911F910F91C0
:101E800008959F92AF92BF92CF92DF92EF92FF920E
:101E90000F931F93CF93DF9393B093FA222720F9E8
:101EA00030E0220F331F93B092FACC24C0F8D12C2B
:101EB0002C293D29220F331FD3B0D6FAEE24E0F8A7
:101EC000F12CE22AF32AEE0CFF1C23B125FB00279C
:101ED00000F910E00E291F29000F111F23B12295D0
:101EE0002170C22F80E0D82FC02BD12BCC0FDD1F4B
:101EF0002CB126FBAA27A0F9B0E0AC2BBD2BAA0F72
:101F0000BB1F29B1221F2227221FA22BAA0FBB1FF2
:101F100026B126FBEE27E0F9F0E0EA2BFB2BEE0FD3
:101F2000FF1F29B124FB882780F990E08E2B9F2B7F
:101F3000880F991F29B1622F617070E0682B792B8F
:101F4000660F771F89B181FB442740F950E0462B8B
:101F5000572B409587E058278FB199B192FB99276D
:101F600090F9B92EB294BB0CBB0CA0ECBA22A12CF8
:101F700082958F7090E099278695979588278A2972
:101F80009B29842B952BDF91CF911F910F91FF906F
:101F9000EF90DF90CF90BF90AF909F9008955298B0
:101FA0005A9A5198599A5098589A54985C9A3E98CF
:101FB000469A57985F9A6E98769A24982C9A259804
:101FC0002D9A26982E9A22982A9A23982B9A4A99E3
:101FD00005C010920C0310920B0306C081E090E044
:101FE00090930C0380930B034CDF90930803809332
:101FF000070390930A03809309039093020380934D
:10200000010390930403809303039093060380934A
:102010000503109200031092FF02F89416BC80E5AD
:1020200087BD82E084BD95E095BD80936E00789475
:1020300008951F920F920FB60F9211240F931F93C2
:102040002F933F934F935F936F937F938F939F93C0
:10205000AF93BF93CF93DF93EF93FF93009103036D
:10206000109104031093060300930503C09101032C
:10207000D0910203D0930403C093030302DF909333
:10208000020380930103C023D1238C239D2320913D
:10209000090330910A03909308038093070396FD88
:1020A00005C010920C0310920B0306C041E050E0F3
:1020B00050930C0340930B038217930731F029E2EE
:1020C00030E0309300032093FF0290930A03809343
:1020D00009038091FF0290910003892BA9F0809160
:1020E000E00081608093E0008091FF029091000306
:1020F0000197909300038093FF02892B29F480912C
:10210000E0008E7F8093E000FF91EF91DF91CF910F
:10211000BF91AF919F918F917F916F915F914F91FF
:102120003F912F911F910F910F900FBE0F901F9015
:102130001895809107039091080320910B0330912B
:102140000C032130310561F49C01377091E020FDD2
:1021500009C0369527959F5F9C30C9F780E00895A8
:102160008F700895892F0895809107039091080337
:102170009770089580910B0390910C030895232389
:1021800023204F4E4C59204348414E47452042455D
:102190004C4F5720494620594F55204B4E4F572002
:1021A0005748415420594F5527524520444F494ED6
:1021B00047202323230A0A23206D616B6520626F69
:1021C0006F742064656661756C74200A7365742091
:1021D00064656661756C743D2224677275627377FD
:1021E000697463685F63686F696365220A0A232004
:1021F0007375707072657373206D656E7520646998
:1022000073706C61790A7365742074696D656F759C
:10221000745F7374796C653D6D656E750A73657472
:102220002074696D656F75743D300A0A23207072E1
:10223000696E7420626F6F742063686F69636520D4
:102240000A636C6561720A0A6563686F20275072C1
:102250006573732045534320666F7220626F6F74FD
:10226000206D656E75270A6563686F0A6563686F20
:10227000202D6E2027426F6F74696E6720270A0A2F
:102280006F6C645F636F6C6F723D2224636F6C6F61
:10229000725F6E6F726D616C2220202020202020E2
:1022A000202020202020202020202020202020202E
:1022B00020232073617665206E6F726D616C2063E0
:1022C0006F6C6F720A6966205B202D6E2022247B62
:1022D000677275627377697463685F63686F696357
:1022E000655F636F6C6F727D22205D3B2074686553
:1022F0006E0A20202073657420636F6C6F725F6EAE
:102300006F726D616C3D22246772756273776974B8
:1023100063685F63686F6963655F636F6C6F722288
:102320002020202320686967686C696768742069C9
:102330006620646566696E65640A66690A0A656393
:10234000686F2024677275627377697463685F636E
:10235000686F6963650A0A73657420636F6C6F72D6
:102360005F6E6F726D616C3D22246F6C645F636F92
:102370006C6F72222020202020202020202020206E
:1023800020202020202020202320726573746F726B
:1023900065206E6F726D616C20636F6C6F720A6581
:1023A00063686F202D6E2027636F6E74696E75658C
:1023B0007320696E20270A0A2320776169742066DA
:1023C0006F7220737065636966696564206E756DF0
:1023D000206F66207365636F6E64730A696620738D
:1023E0006C656570202D2D696E74657272757074E0
:1023F00069626C65202D2D766572626F736520248D
:10240000677275627377697463685F736C65657012
:102410005F736563730A7468656E0A202020636CBD
:102420006561720A656C73650A202020756E73659C
:10243000742074696D656F75740A66690A0A2320D1
:1024400072657475726E20746F20677275622E6388
:10245000666720616E6420626F6F740AEE0FFF1F63
:102460000590F491E02D0994F999FECF92BD81BDBC
:10247000F89A992780B50895A8E1B0E042E050E0CD
:102480001CC0DC01CB0102C02D9105D04150504051
:10249000D8F70895262FF999FECF1FBA92BD81BDB6
:1024A00020BD0FB6F894FA9AF99A0FBE01960895D6
:1024B000F1DF272FF0CFDC01CB01FC01F999FECF32
:1024C00006C0F2BDE1BDF89A319600B40D924150BC
:0A24D0005040B8F70895F894FFCFCC
:1024DA00677275627377697463685F736C65657038
:1024EA005F736563733D2700270D0A677275627310
:1024FA0077697463685F63686F6963655F636F6C4C
:10250A006F723D2700270D0A6772756273776974C7
:10251A0063685F63686F6963653D2700270D0A007A
:10252A0042696E617279207069636B3A20200031CA
:08253A00312D3E313A20000072
:00000001FF
