:10000000B2C10000CCC10000CAC10000C8C10000DC
:10001000C6C10000C4C10000C2C10000C0C10000D0
:10002000BEC10000BCC100000C943E0AB8C1000073
:10003000B6C10000B4C10000B2C10000B0C10000F0
:10004000AEC10000ACC10000AAC10000A8C1000000
:10005000A6C100000C94E80FA2C10000A0C10000DE
:100060009EC100009CC100009AC1000098C1000020
:1000700096C1000094C1000092C1000090C1000030
:100080008EC100008CC100008AC1000088C1000040
:1000900086C1000084C1000082C1000080C1000050
:1000A0007EC100007CC100007AC100006E08D70844
:1000B000A3090909A3099808AA07A3094F08BB08BF
:1000C00056097D09040309041C0330003000300088
:1000D00030003000300030003000300030003000A0
:1000E0003000300020035400480045002000470045
:1000F00052005500420020005300570049005400B0
:10010000430048001A0355004E00470020005300EA
:100110004F004600540057004100520045000902BC
:10012000200001010080320904000002080650008E
:10013000070581024000000705020240000012018D
:100140000002000000400912152000100102030106
:10015000008003021F000000372E3437544845202A
:10016000475255422053574954434820554E472043
:10017000534F465431312D3E313A200042696E6171
:100180007279207069636B3A202000270D0A0027DE
:100190000D0A677275627377697463685F63686F6D
:1001A0006963653D2700270D0A6772756273776979
:1001B0007463685F63686F6963655F636F6C6F72B8
:1001C0003D2700677275627377697463685F736C4B
:1001D0006565705F736563733D2700424F4F5454EC
:1001E000484953202020080000800A5A0B5A0B006F
:1001F00000800A5A0B000000000000535749544386
:10020000482020475242230000C00A5A0B5A0B00D4
:1002100000C00A5A0B030000000000412E006500D8
:100220006E00740072000F000B6900650073002EF1
:100230000074007800000074000000454E545249DC
:10024000457E31545854260000A00A5A0B5A0B0020
:1002500000A00A5A0B040000000000412E006200BA
:100260006F006F0074000F0014700069006E00735F
:10027000002E007400000078007400424F4F54506C
:10028000497E31545854270000800A5A0B5A0B00FB
:1002900000800A5A0B05001200000055AAF8FFFF63
:1002A00000F0FFFFFFFFEB3C906D6B66732E666105
:1002B0007400020201000110004400F80100200057
:1002C0004000000000000000000080002955198552
:1002D00019424F4F5454484953202020464154312D
:1002E000322020200E1FBE5B7CAC22C0740B56B4A3
:1002F0000EBB0700CD105EEBF032E4CD16CD19EB4E
:10030000FE54686973206973206E6F7420612062E7
:100310006F6F7461626C65206469736B2E2020506E
:100320006C6561736520696E73657274206120620B
:100330006F6F7461626C6520666C6F70707920619C
:100340006E640D0A707265737320616E79206B653F
:100350007920746F2074727920616761696E202E34
:100360002E2E200D0A0011241FBECFEFDAE0DEBFD3
:10037000CDBF20E030E080E80FB6F89480936100B4
:10038000209361000FBE81E022E0A0E0B1E001C057
:100390001D92AC3CB207E1F703D00C943A1230CE78
:1003A0000E94340B20E030E080E80FB6F894809390
:1003B0006100209361000FBE85B7806885BF85BF4F
:1003C0002BD280E090E00895559A5D9A859A8D9899
:1003D000859A8D9884988C9A0E94470BE2EEF0E003
:1003E00080818460808308958091A7028F5F8093CD
:1003F000A702089582E08093E9009091F100809136
:10040000F100833529F481E0953519F480E001C0CD
:1004100081E09091F100923409F081E09091F10037
:10042000933411F48823A9F08091E8008B7F8093A6
:10043000E8008091E8008F778093E80091E0909346
:10044000E9008091EB0080628093EB009093C20200
:1004500008958091F100809300018091F1008093D4
:1004600001018091F100809302018091F10080935D
:1004700003018091F1008093A9028091F1008093A3
:10048000AA028091F1008093AB028091F1008093E9
:10049000AC028091F100882321F081E08093A602D4
:1004A00002C01092A6028091F1008093A502809173
:1004B000A802811102C01092A5028091F100EDEA1C
:1004C000F2E08091F100819382E0ED3BF807C9F7FB
:1004D0008091E8008B7F8093E8008091E8008F771F
:1004E0008093E8008091A602813011F48093E900A6
:1004F000DFD4813089F08091EB0080628093EB0043
:100500008091A602813011F0E2E001C0E1E0F0E06C
:10051000EF53FD4F81E080830895CF9381E0809376
:10052000E900C1E08091EB0085FF09C01092E9006D
:100530008091E80083FDF3D4C093E900F3CF82E01B
:100540008093E900C2E08091EB0085FF09C0109222
:10055000E9008091E80083FDE2D4C093E900F3CF85
:1005600081E08093E9008091E80085FD05C08091DD
:10057000EB0080FDF8CF34C085E58093F10083E582
:100580008093F10092E49093F1008093F1008091C8
:1005900000018093F100809101018093F10080912E
:1005A00002018093F100809103018093F10080911A
:1005B000A9028093F1008091AA028093F1008091BA
:1005C000AB028093F1008091AC028093F1008091A6
:1005D000BD028093F1008091E8008F778093E8005E
:1005E000CF9108958091C802882349F082E08093DA
:1005F000E9008091E80082FF02C0FCDE8ECF089502
:10060000CF93DF9300D0CDB7DEB72091F10090916A
:10061000F100813211F56F3F09F053C0211151C033
:1006200091114FC08091F10089838091F1008A83FC
:1006300089819A81892B09F044C08091E800877FE5
:100640008093E8008091E8008E7F8093E80080919D
:10065000E80080FFFCCF81E035C0813A91F56E3F24
:1006600081F521112EC091112CC08091F100898358
:100670008091F1008A8389819A81892B11F580917B
:10068000E800877F8093E8001092F1008091E800F5
:100690008E7F8093E8008091E80080FFFCCF8091FE
:1006A000E80082FFFCCF8091E8008B7F8093E80018
:1006B0008091E8008F778093E80081E08093A80222
:1006C00001C080E00F900F90DF91CF910895CF93FC
:1006D000DF93C9EED0E081E0888364E381E8A1D7AD
:1006E00082E0888364E380E8DF91CF919AC780E05D
:1006F0000895892B19F581E08093E9008091EB0042
:1007000080618093EB0092E09093EA001092EA00FF
:100710008091EB0088608093EB009093E9008091DA
:10072000EB0080618093EB0084E08093EA001092FC
:10073000EA008091EB0088608093EB00089583309D
:1007400021F5613089F050F06230A1F06330E9F4B6
:100750008CE18093C90288EC90E011C084E0809322
:10076000C90284EC90E00BC08AE18093C90284E066
:1007700091E005C080E28093C90284EE90E09093FE
:10078000CB028093CA0281E0089580E00895811130
:1007900001C07EC781E090E00895811102C0CB01C5
:1007A00080C781E090E00895811101C084C781E095
:1007B0000895CF92DF92EF92FF926A017B0181113F
:1007C00008C0A901C701B601FF90EF90DF90CF905C
:1007D00078C781E090E0FF90EF90DF90CF90089590
:1007E000CF92DF92EF92FF926A017B01811108C0E4
:1007F000A901C701B601FF90EF90DF90CF906AC7C3
:1008000081E090E0FF90EF90DF90CF9008952FD699
:10081000DBCD33D6E7DEFDCFFADFFBDFE1EFF0E043
:100820008CE180838AE08083108285E0808310825F
:1008300010821082108210821082108281E08083E8
:100840000895CF93C82F81111092F1006093F100A9
:100850001092F1008091A502A7DF882321F080E8A3
:100860008093F10002C01092F100CC2331F010927D
:10087000F1001092F1001092F1001092F100CF916E
:10088000089591E09093F1009AE09093F10090E840
:100890009093F10023E02093F1001092F100109268
:1008A000F1001092F1001092F1008D3040F0909321
:1008B000F1001092F1001092F1001092F1000895F1
:1008C0001092BD02EEEBF2E01082118212820895C6
:1008D0000F931F93CF93DF93CDB7DEB762970FB619
:1008E000F894DEBF0FBECDBF8091B102833108F016
:1008F00082E190E799831A829091BE029B831C82C9
:100900001D821E821F829AE0988719861A861B868E
:100910001C869091BF029D879091C0029E871F8682
:10092000188A198A1A8A9E012F5F3F4FF9019E2F5C
:10093000921B981720F491919093F100F8CF909129
:10094000E8009F779093E8004091A9025091AA0295
:100950006091AB027091AC028A019B01081B1109E6
:10096000210931090093A9021093AA022093AB0236
:100970003093AC02A5DF81E062960FB6F894DEBF3B
:100980000FBECDBFDF91CF911F910F91089581E0F0
:100990008093BD02EEEBF2E082E080838AE3818304
:1009A0001282089581E08093BD02EEEBF2E086E0D2
:1009B000808388E281831282089581E08093BD0262
:1009C000EEEBF2E084E08083118212820895809140
:1009D000A502DDDE8230910539F08330910531F0DA
:1009E000892B31F46DDF05C0D2DF03C0DBDF01C02E
:1009F000E4DF81E00895CF93DF9300D000D0CDB73E
:100A0000DEB7BE016F5F7F4F8091A502C6DE8230E8
:100A10009105A9F183309105A1F1892BA1F58C8174
:100A20008093F1008B818093F1008A818093F100A3
:100A300089818093F1001092F1001092F10082E020
:100A40008093F1001092F1008091E8008F778093FD
:100A5000E8008091A9029091AA02A091AB02B09106
:100A6000AC020897A109B1098093A9029093AA0248
:100A7000A093AB02B093AC0223DF81E006C087DF16
:100A800003C090DF01C099DF80E00F900F900F90BE
:100A90000F90DF91CF91089581E08093BD02EEEB3E
:100AA000F2E087E0808387E281831282089581E00B
:100AB0008093BD02EEEBF2E085E0808384E28183E7
:100AC000128208950F931F938091AE02837021F4D8
:100AD0008091AF02882319F0EADF80E040C0909156
:100AE000B102913608F090E620E531E080E0891708
:100AF000C9F0883029F0803131F0803231F407C0FC
:100B00002CE631E002C02CE531E0F90102C0E8E555
:100B1000F1E09F012F5F3F4FE491E093F1008F5F81
:100B2000843229F79091E8009F779093E8004091F4
:100B3000A9025091AA026091AB027091AC028A01A5
:100B40009B01081B1109210931090093A902109387
:100B5000AA022093AB023093AC02B2DE81E01F9177
:100B60000F9108951F93CF93DF9300D000D000D052
:100B7000CDB7DEB78091AF028C838091B0028B83BA
:100B80008091B1028A838091B20289838091B402FC
:100B90008E838091B5028D831091A602111102C03F
:100BA00086DF56C08091A9029091AA02A091AB0263
:100BB000B091AC020097A105B10541F48D819E81F1
:100BC000892B11F47DDE3CC072DF3AC039E0B69566
:100BD000A795979587953A95D1F749815A816B8169
:100BE0007C819C018091A502E4DD8230910551F168
:100BF0008330910549F1892B49F54D815E8160E093
:100C000070E08091A9029091AA02A091AB02B091EC
:100C1000AC0229E0B695A795979587952A95D1F7C7
:100C2000481759076A077B0711F44ADE01C03FDF06
:100C30001092A9021092AA021092AB021092AC027A
:100C400011E006C0A4DE03C0ADDE01C0B6DE10E0D8
:100C5000812F26960FB6F894DEBF0FBECDBFDF9171
:100C6000CF911F910895CF93DF9300D000D000D093
:100C7000CDB7DEB78091AF028C838091B0028B83B9
:100C80008091B1028A838091B20289838091B402FB
:100C90008E838091B5028D838091A602813011F4FC
:100CA00006DF64C08091A9029091AA02A091AB02D4
:100CB000B091AC02892B8A2B8B2B49F48D819E81BC
:100CC000892B11F4FDDD01C0F2DE81E050C080917E
:100CD000A5026ADD813011F4DFDE48C08091A902EF
:100CE0009091AA02A091AB02B091AC0239E0B69506
:100CF000A795979587953A95D1F749815A816B8148
:100D00007C819C018091A5026BDD8230910549F1C7
:100D10008330910541F1892B41F54D815E8160E081
:100D200070E08091A9029091AA02A091AB02B091CB
:100D3000AC0229E0B695A795979587952A95D1F7A6
:100D4000481759076A077B0711F4BADD01C0AFDE07
:100D50001092A9021092AA021092AB021092AC0259
:100D6000B4CF15DE03C01EDE01C027DE80E026966C
:100D70000FB6F894DEBF0FBECDBFDF91CF910895BF
:100D8000CF93882319F0C091B50202C0C091B1027F
:100D90009091AF029F739C3151F09F33E1F09130FD
:100DA00009F082C06FE04DDD8C2F6BDD03C06FE07A
:100DB00048DD34DD8091E8008F778093E8008091F2
:100DC000A9029091AA02A091AB02B091AC02409707
:100DD000A109B1094CC08823D1F0CD3118F46EEFD0
:100DE0006C0F01C06BE12DDDC83061F58091E8002A
:100DF0008F778093E8008091A9029091AA02A09138
:100E0000AB02B091AC020897A109B10930C0CC3156
:100E100018F46FEF6C0F01C06BE180E012DDC4309D
:100E200089F48091E8008F778093E8008091A9028F
:100E30009091AA02A091AB02B091AC020497A109D3
:100E4000B10915C08C2F1DDDCD30E0F0E7DC8091BD
:100E5000E8008F778093E8008091A9029091AA0220
:100E6000A091AB02B091AC024C97A109B10980935B
:100E7000A9029093AA02A093AB02B093AC0220DD2A
:100E800081E014C08091E8008F778093E800809122
:100E9000A9029091AA02A091AB02B091AC028C1B66
:100EA0009109A109B109E3CF02DE80E0CF91089555
:100EB0008091AD028A3209F4D6CE883209F452CE3E
:100EC0008B31E9F060F48330B1F018F481111AC06D
:100ED0007ECD823189F08A31A9F480E00FC085325D
:100EE00061F018F48E3159F00DC08F3241F08A351F
:100EF00049F481E003C0ECCCE5CD7DCD41CFE0DC11
:100F000081E0089581E08093BD0285E08093BE0278
:100F100080E28093BF021092C00280E008950F9398
:100F20001F93CF93DF9300D0CDB7DEB78091E80059
:100F30008B7F8093E8001091F1000091F100802FE9
:100F400090E08C30910508F0FEC1FC01EA5AFF4F99
:100F50000C94FD11103809F0F6C16091F1008091F8
:100F6000F100813041F0823081F480E28093C90247
:100F70008EE191E005C082E18093C9028EE391E0A9
:100F80009093CB028093CA0204C0D9DB882309F472
:100F9000DAC18091F1008091F1008091F1008983A4
:100FA0008091F1008A838091E800877F8093E80038
:100FB0008091C90229813A81482F50E04217530796
:100FC00020F48F7391E021F002C02093C90290E0D9
:100FD0008091E8008F7E8093E8008091C9028111A2
:100FE00004C0913009F04EC037C08091E80084FD04
:100FF000F8CF8091E80080FD08C08091E80084FD72
:1010000004C08091D90080FDF4CF81E42091C90211
:101010002223B1F08150A1F0E091CA02F091CB02FD
:101020009F012F5F3F4F3093CB022093CA02E49180
:10103000E093F1002091C90221502093C902E6CF2C
:101040008091E80084FDCDCF8091D90080FFC9CF89
:101050008091E8008E7FBFCF8091E80084FD12C0B0
:101060008091E80080FD04C08091D90080FDF8CF18
:101070008091E8008E7F8093E80004C08091D900C1
:1010800080FF04C08091E80084FFF8CF8091E800E1
:101090008F7E8093E8008091E8008B7F46C01038F7
:1010A00009F051C18091E800877F8093E80080912A
:1010B000C8028093F1008091E8008E7F8093E80061
:1010C0008091E8008F778093E8008091E80082FDAE
:1010D00024C08091D90080FDF8CF1FC08091F1001D
:1010E0008091F100E091F100113809F0CCC08091BD
:1010F000E800877F8093E8001092F1001092F100E1
:101100008091E8008E7F8093E8008091E80082FD66
:1011100004C08091D90080FDF8CF8091E8008B7FDA
:101120008093E8008091E8008F778093E8001DC1EC
:10113000111109C18091F1009091E30090788F77AF
:10114000892B8093E3008091E800877F8093E800FB
:101150008091E8008E7F8093E8008091E80080FD18
:1011600004C08091D90080FDF8CF8091E3008068B1
:101170008093E300FAC01111E6C09091F100923023
:1011800008F0E1C08091E800877F8093E8009093A9
:10119000C8028091E8008E7F8093E8008091C802A9
:1011A0000F900F90DF91CF911F910F9190CA112353
:1011B000A9F1123009F0C7C08091F1009091F100BF
:1011C0008111C1C0E091F100EF77E093E9008091D7
:1011D000EB0080FF40C0EE23A9F08091EB0080611E
:1011E0008093EB0081E090E00E2E01C0880F0A94FE
:1011F000EAF78093EA001092EA008091EB008860A1
:101200008093EB001092E900F0E0EF53FD4F108265
:1012100031C0112319F0123021F095C08091F100F6
:1012200092C08091F1009091F10081118CC0E09109
:10123000F100EF7751F48091EB0080628093EB0036
:101240008091E800877F8093E800E093E900809137
:10125000EB0080FD03C01092E90075C08091EB00A7
:1012600080628093EB001092E900F0E0EF53FD4FB5
:1012700081E080838091E800877F8093E8008091FF
:10128000E8008E7F52CF123821F0103809F05BC091
:101290002ECF8091E800877F8093E800EF77F0E021
:1012A000EF53FD4F80818093F10028CF113809F072
:1012B0004AC08091F1008091F1009091F1009983F2
:1012C0009091F1009A8381113EC08091E800877F60
:1012D0008093E80089819A810ADA8093F1008091F5
:1012E000E8008E7F8093E8008091E80082FD15CFB2
:1012F0008091D90080FDF8CF10CF113021F5609199
:10130000F1008091F1009091F10099839091F100AA
:101310009A83811118C08091E800877F8093E8004C
:1013200089819A81E6D91092E9008091E8008E7F48
:101330008093E8008091E80080FD17C08091D9007B
:1013400080FDF8CF12C0602F812F5AD981110DC0B6
:101350008091EB0080628093EB008091E800877FB2
:101360008093E80081E08093C1020F900F90DF919D
:10137000CF911F910F9108957894E8EDF0E080816E
:101380008F7680838081806980837894089582E05D
:1013900089BD09B400FEFDCFF8948091D8008F7DFF
:1013A0008093D80054D18091E0008E7F8093E0003C
:1013B00078948091E20081608093E2008091E20065
:1013C00088608093E20008958091D90080FF13C067
:1013D0008091060181110FC081E080930601109277
:1013E00004018091070190910801826090930801A7
:1013F00080930701CCDF8091D90080FD1BC08091D4
:1014000006018130B9F4109206011092C802809151
:10141000070190910801846090930801809307016F
:101420008091E00081608093E0008091D80080622C
:101430008093D800809107019091080190FF10C01F
:1014400080910701909108019E7F909308018093FD
:10145000070181E08093EA001092EA001092C8022E
:101460001092E9008091E80083FD59CD0895E7EDE1
:10147000F0E08081816080837FCFA6CF1F920F92A2
:101480000FB60F9211242F933F934F935F936F9357
:101490007F938F939F93AF93BF93EF93FF9380912D
:1014A000E10082FF09C08091E20082FF05C08BEF5E
:1014B0008093E1000E94F4018091E10080FF40C030
:1014C0008091E20080FF3CC0809104018130D9F41A
:1014D0008091C8028823B9F08091E2008E7F8093CA
:1014E000E2008FEE8093E1008091E20080618093C2
:1014F000E20089B58D7F89BD19BC8091D8008062DA
:101500008093D8001DC08FEE8093E1008091070189
:1015100090910801806290930801809307018EEFFB
:101520008093E1008091E20080618093E2008091ED
:10153000D80080628093D80089B58D7F89BD19BCA1
:101540008091E10084FF29C08091E20084FF25C0E2
:1015500009B400FE1CC08091D8008F7D8093D80014
:101560008FEE8093E1008091E2008F7E8093E20015
:101570008091070190910801806490930801809305
:1015800007018091E20081608093E20006C082E062
:1015900089BD09B400FEFDCFDECF8091E10085FF5B
:1015A0001AC08091E20085FF16C08091E2008F7E14
:1015B0008093E2008FED8093E1008091E2008F7DC7
:1015C0008093E200809107019091080180689093D8
:1015D0000801809307018091E10083FF11C0809191
:1015E000E20083FF0DC087EF8093E10030D080914F
:1015F0000701909108019160909308018093070181
:10160000FF91EF91BF91AF919F918F917F916F91DA
:101610005F914F913F912F910F900FBE0F901F90B0
:101620001895EBEEF0E09081916090838093EC0050
:10163000EDEEF0E080818270682B608380818260B3
:1016400080838091EE00881F8827881F089510925C
:10165000E9008091EB0080FD05C01092E90060E395
:1016600082E0DFCF80E008958FB7F89497EF94BFC2
:101670000FB6F894A89590916000986190936000DF
:10168000109260000FBE87FF01C0789408952BC0B0
:1016900038D0813019F082E090E0089580E090E049
:1016A000089541E450E060E070E0FC014083518324
:1016B00062837383EDCF8FB18295817091E089272A
:1016C000089521D021E030E0882311F020E030E0BF
:1016D000C9010895CAD021E030E0882311F020E04C
:1016E00030E0C90108952AD48EEF93E094D6813C6E
:1016F00023E0920710F080EC93E073D17CD1E8D422
:101700005BC281E008959F92AF92BF92CF92DF9229
:10171000EF92FF920F931F93CF93DF9300D0CDB73B
:10172000DEB76A017B01FE2CEE24FF0CD1D444D23B
:101730005D98870188E0A82EF894B12CF801003C50
:10174000110518F4EA55FD4F07C0EE5FF140EB308C
:10175000F10530F4E556FD4FE491E093F10053C0FC
:10176000992493949B0C0C3324E0120761F43ED12E
:1017700089839A838093F100B92C8A818093F10048
:101780000DE314E040C00C3784E0180761F424D165
:1017900089839A838093F100B92C8A818093F10028
:1017A0000DE714E030C0F801F450E03CF10558F4C6
:1017B000E552FE4FE4910B3624E0120771F67C9956
:1017C000CCCFE160CACF01158AE0180748F00ED1EE
:1017D000965F0817190720F4C8019A50E8D20EC086
:1017E000C8019E50803C23E0920710F40CD606C03E
:1017F000C80192518231910520F4ECD28093F1001E
:1018000002C01092F1000F5F1F4FB3948FE38B154E
:1018100008F094CF8091E8008F778093E800789467
:101820008091E80085FD07C09091EB00892F8170C1
:1018300090FDF6CF0CC0AA94A1107ECF2EEFF21A25
:1018400081E0C81AD10809F074CF5D9A81E00F9049
:101850000F90DF91CF911F910F91FF90EF90DF904C
:10186000CF90BF90AF909F9008955F926F927F92BC
:101870008F929F92AF92BF92CF92DF92EF92FF92A0
:101880000F931F93CF93DF93CDB7DEB7C254D10927
:101890000FB6F894DEBF0FBECDBF5A016B01DC2C32
:1018A000CC24DD0C0FB1029501705D987E0121E41E
:1018B000E20EF11C20EC822E23E0922E360188E00D
:1018C000582E8091E80085FD07C09091EB00892F8C
:1018D000817090FDF6CF69C0F894011109C0FE0136
:1018E00031968091F1008193EE15FF05D1F746C046
:1018F00010E0B3018091F100E1E0F0E0EC0FFD1F9A
:10190000E10FF11D80839CE7691694E0790621F5CB
:10191000F70180831F5F8091F100E1E0F0E0EC0FC0
:10192000FD1FE10FF11D8083F7018183808191818B
:10193000813C934018F0F70191828082F70160802A
:101940007180C3014ED0B3018EEF93E080D553D0A8
:10195000BFD332D16DE774E03B01FFEF6F1A7F0A0E
:101960001F5F103430F26F537E40603C23E07207FB
:1019700028F440E450E0CE01019652D58091E80071
:101980008B7F8093E8008091E8008F778093E80058
:1019900078945A94511095CF8EEFD81A91E0A91AE5
:1019A000B10809F08BCF5D9A81E0CE5BDF4F0FB6B7
:1019B000F894DEBF0FBECDBFDF91CF911F910F9185
:1019C000FF90EF90DF90CF90BF90AF909F908F905F
:1019D0007F906F905F9008958091090190910A0126
:1019E000089590930A0180930901089580910B0155
:1019F00090910C0108959F92AF92BF92CF92DF9287
:101A0000EF92FF920F931F93CF93DF93E7E7F2E0FC
:101A100047E552E027E332E087E192E0C7EFD1E00B
:101A200007ED11E011921192DA011D921D92AD01A4
:101A3000D9011D921D929D01DC011D921D92CD01C7
:101A400019921992D8011D921D928D01B2E0E739C9
:101A5000FB0741F7C0900901D0900A0199249394A3
:101A6000C0E0D0E0ADEFAA2EBB24BA948E010C15D5
:101A70001D0509F495C078016FEFE61AF60AC80152
:101A8000C2D48D3021F08A3051F08701F0CFCE14CE
:101A9000DF0409F485C0780182E0E80EF11CCE0174
:101AA000B2D4833279F5CE010196ADD4813381F47D
:101AB000892D90E0880F991FFC01E958FD4F9E0188
:101AC0002D5F3F4F31832083FC01E95AFD4F12C047
:101AD000823309F05DC0892D90E0880F991FFC01C9
:101AE000E95CFD4F9E012D5F3F4F31832083FC0158
:101AF000E95EFD4F95012C1B3D0B020F131F118357
:101B0000008346C0892D90E0880F991FFC01E950A1
:101B1000FE4FD183C083FC01E952FE4F0C1B1D0B0D
:101B2000118300839394AFE0A915D0F1892D90E043
:101B30009C0121503109220F331FF901E958FD4F53
:101B400040815181880F991FFC01E958FD4F518355
:101B50004083F901E95AFD4F40815181FC01E95A66
:101B6000FD4F51834083F901E95CFD4F4081518174
:101B7000FC01E95CFD4F51834083F901E95EFD4FB3
:101B800020813181FC01E95EFD4F3183208303C058
:101B9000BFE0B91528F0EC14FD0411F0E70166CFA1
:101BA000DF91CF911F910F91FF90EF90DF90CF9039
:101BB000BF90AF909F9008958F929F92AF92BF92E7
:101BC000CF92DF92EF92FF920F931F93CF93DF9309
:101BD000882361F0C82FD0E0CC0FDD1FFE01E95251
:101BE000FE4FE080F180E114F10449F410920E01FF
:101BF00010920D0110920C0110920B01CBC0E3EC7E
:101C0000F1E0AFE0B1E09D012F5031408491AF0190
:101C10004F5F5F4F882321F0E491ED93FA01F3CFFA
:101C200030930E0120930D01FE01E95AFD4FC08053
:101C3000D180812C912CCE0189589D4F5C0100915F
:101C40000D0110910E018C149D04A1F0C8010196A4
:101C500090930E0180930D01F50180819181880D93
:101C6000991DD1D3F801E15FFE4F8083FFEF8F1AFA
:101C70009F0AE5CFE6EAF1E0D801A15FBE4F9D01E2
:101C80002F5031408491AF014F5F5F4F882321F087
:101C9000E491ED93FA01F3CF30930E0120930D01FF
:101CA000FE01E95EFD4FC080D180812C912CCE01D8
:101CB000895C9D4F5C0100910D0110910E018C1407
:101CC0009D04A1F0C801019690930E0180930D012F
:101CD000F50180819181880D991D95D3F801E15F0F
:101CE000FE4F8083FFEF8F1A9F0AE5CFEFE8F1E008
:101CF000D801A15FBE4F9D012F5031408491AF01AB
:101D00004F5F5F4F882321F0E491ED93FA01F3CF09
:101D100030930E0120930D01C12CD12CCE0189509E
:101D20009E4F5C01C0910D01D0910E018E010F5F9D
:101D30001F4F10930E0100930D01F50180819181D9
:101D40008C0D9D1D60D3C15FDE4F8883FFEFCF1ADE
:101D5000DF0AEC14FD0431F7EBE8F1E0D801A15FF4
:101D6000BE4FCD018F5091402491AF014F5F5F4F27
:101D7000222321F0E491ED93FA01F3CF90930E0129
:101D800080930D0186509C4D8C51914290930C0193
:101D900080930B01DF91CF911F910F91FF90EF90F6
:101DA000DF90CF90BF90AF909F908F90089520913B
:101DB0000D0130910E018217930728F4FC01E15FB9
:101DC000FE4F80810895821B930BFC01E45EFE4D63
:101DD00084910895CF93DF93EC019BD1892BB1F4CB
:101DE000CE30D10520F4FE01E458FE4F15C08BD152
:101DF00021E130E02C1B3D0B02C0969587952A957A
:101E0000E2F7E82FE17080E38E0F07C0C730D105FD
:101E100070F7FE01EC58FE4F8491DF91CF91089549
:101E20009F92AF92BF92CF92DF92EF92FF920F9369
:101E30001F93CF93DF9393B093FA222720F930E0DA
:101E4000220F331F93B092FACC24C0F8D12C2C2946
:101E50003D29220F331FD3B0D6FAEE24E0F8F12C3F
:101E6000E22AF32AEE0CFF1C23B125FB002700F920
:101E700010E00E291F29000F111F23B12295217098
:101E8000C22F80E0D82FC02BD12BCC0FDD1F2CB15F
:101E900026FBAA27A0F9B0E0AC2BBD2BAA0FBB1FD5
:101EA00029B1221F2227221FA22BAA0FBB1F26B156
:101EB00026FBEE27E0F9F0E0EA2BFB2BEE0FFF1FED
:101EC00029B124FB882780F990E08E2B9F2B880F67
:101ED000991F29B1622F617070E0682B792B660F12
:101EE000771F89B181FB442740F950E0462B572BDF
:101EF000409587E058278FB199B192FB992790F9C7
:101F0000B92EB294BB0CBB0CA0ECBA22A12C8295CA
:101F10008F7090E099278695979588278A299B2925
:101F2000842B952BDF91CF911F910F91FF90EF9014
:101F3000DF90CF90BF90AF909F90089552985A9A9B
:101F40005198599A5098589A54985C9A3E98469A43
:101F500057985F9A6E98769A24982C9A25982D9A7D
:101F600026982E9A22982A9A23982B9A4A9905C045
:101F70001092A4021092A30206C081E090E0909318
:101F8000A4028093A3024CDF9093A00280939F024F
:101F90009093A2028093A10290939A028093990257
:101FA00090939C0280939B0290939E0280939D024B
:101FB0001092980210929702F89416BC88E287BD9E
:101FC00082E084BD95E095BD80936E00789408957D
:101FD0001F920F920FB60F9211240F931F932F93FE
:101FE0003F934F935F936F937F938F939F93AF93A1
:101FF000BF93CF93DF93EF93FF9300919B021091D8
:102000009C0210939E0200939D02C0919902D09170
:102010009A02D0939C02C0939B0202DF90939A0293
:1020200080939902C023D1238C239D232091A10268
:102030003091A2029093A00280939F0296FD05C06A
:102040001092A4021092A30206C041E050E0509307
:10205000A4024093A3028217930731F029E230E0F3
:1020600030939802209397029093A2028093A1024A
:102070008091970290919802892BA9F08091E000BD
:1020800081608093E000809197029091980201977F
:102090009093980280939702892B29F48091E00015
:1020A0008E7F8093E000FF91EF91DF91CF91BF9100
:1020B000AF919F918F917F916F915F914F913F91E0
:1020C0002F911F910F910F900FBE0F901F90189599
:1020D00080919F029091A0022091A3023091A402CE
:1020E0002130310561F49C01377091E020FD09C079
:1020F000369527959F5F9C30C9F780E008958F70D3
:102100000895892F089580919F029091A002977061
:1021100008958091A3029091A4020895232323207F
:102120004F4E4C59204348414E47452042454C4F65
:102130005720494620594F55204B4E4F572057485E
:10214000415420594F5527524520444F494E47206E
:102150002323230A0A23206D616B6520626F6F744D
:102160002064656661756C74200A7365742064650B
:102170006661756C743D2224677275627377697449
:1021800063685F63686F696365220A0A2320737559
:10219000707072657373206D656E752064697370FD
:1021A0006C61790A7365742074696D656F75745F0D
:1021B0007374796C653D6D656E750A736574207412
:1021C000696D656F75743D300A0A23207072696EFF
:1021D0007420626F6F742063686F696365200A639F
:1021E0006C6561720A0A6563686F202750726573B7
:1021F000732045534320666F7220626F6F74206DA9
:10220000656E75270A6563686F0A6563686F202DC0
:102210006E2027426F6F74696E6720270A0A6F6C01
:10222000645F636F6C6F723D2224636F6C6F725FCB
:102230006E6F726D616C22202020202020202020D3
:10224000202020202020202020202020202020238B
:102250002073617665206E6F726D616C20636F6CA8
:102260006F720A6966205B202D6E2022247B6772C4
:1022700075627377697463685F63686F6963655FCC
:10228000636F6C6F727D22205D3B207468656E0AFF
:1022900020202073657420636F6C6F725F6E6F72A5
:1022A0006D616C3D2224677275627377697463682F
:1022B0005F63686F6963655F636F6C6F7222202074
:1022C000202320686967686C6967687420696620E4
:1022D000646566696E65640A66690A0A6563686FA3
:1022E0002024677275627377697463685F63686FCF
:1022F0006963650A0A73657420636F6C6F725F6E41
:102300006F726D616C3D22246F6C645F636F6C6FE4
:102310007222202020202020202020202020202069
:102320002020202020202320726573746F72652086
:102330006E6F726D616C20636F6C6F720A6563689B
:102340006F202D6E2027636F6E74696E7565732024
:10235000696E20270A0A23207761697420666F72EC
:1023600020737065636966696564206E756D206FA2
:1023700066207365636F6E64730A696620736C65AB
:102380006570202D2D696E74657272757074696246
:102390006C65202D2D766572626F736520246772DF
:1023A00075627377697463685F736C6565705F737A
:1023B0006563730A7468656E0A202020636C65612A
:1023C000720A656C73650A202020756E736574202F
:1023D00074696D656F75740A66690A0A23207265EF
:1023E0007475726E20746F20677275622E636667F3
:1023F00020616E6420626F6F740AEE0FFF1F0590FC
:10240000F491E02D0994F999FECF92BD81BDF89A1F
:10241000992780B50895A8E1B0E042E050E01CC0E3
:10242000DC01CB0102C02D9105D041505040D8F7BE
:102430000895262FF999FECF1FBA92BD81BD20BD08
:102440000FB6F894FA9AF99A0FBE01960895F1DF43
:10245000272FF0CFDC01CB01FC01F999FECF06C09C
:10246000F2BDE1BDF89A319600B40D924150504052
:08247000B8F70895F894FFCFBE
:00000001FF
