:100000007FC10000A4C10000A2C10000A0C1000087
:100010009EC100009CC100009AC1000098C1000070
:1000200096C1000094C100000C94110A90C1000018
:100030008EC100008CC100008AC1000088C1000090
:1000400086C1000084C1000082C1000080C10000A0
:100050007EC100000C94A10F7AC1000078C100009D
:1000600076C1000074C1000072C1000070C10000C0
:100070006EC100006CC100006AC1000068C10000D0
:1000800066C1000064C1000062C1000060C10000E0
:100090005EC100005CC100005AC1000058C10000F0
:1000A00056C1000054C1000052C100004108AA0816
:1000B0007609DC0876096B087D07760922088E0828
:1000C00029095009040309041C03300030003000E2
:1000D00030003000300030003000300030003000A0
:1000E0003000300020035400480045002000470045
:1000F00052005500420020005300570049005400B0
:10010000430048001A0355004E00470020005300EA
:100110004F004600540057004100520045000902BC
:10012000200001010080320904000002080650008E
:10013000070581024000000705020240000012018D
:100140000002000000400912152000100102030106
:10015000008003021F000000372E3437544845202A
:10016000475255422053574954434820554E472043
:10017000534F4654424F4F5454484953202020086F
:100180000000800A5A0B5A0B0000800A5A0B00002C
:10019000000000005357495443482020475242234F
:1001A0000000C00A5A0B5A0B0000C00A5A0B030089
:1001B00000000000412E0065006E00740072000F08
:1001C000000B6900650073002E00740078000000C9
:1001D00074000000454E545249457E31545854260F
:1001E0000000A00A5A0B5A0B0000A00A5A0B040088
:1001F00000000000412E0062006F006F0074000FCD
:100200000014700069006E0073002E00740000007E
:1002100078007400424F4F5450497E31545854274F
:100220000000800A5A0B5A0B0000800A5A0B050086
:100230001200000055AAF8FFFF00F0FFFFFFFFEBE0
:100240003C906D6B66732E666174000202010001C2
:1002500010004400F80100200040000000000000F1
:1002600000000080002955198519424F4F54544809
:10027000495320202046415431322020200E1FBEF9
:100280005B7CAC22C0740B56B40EBB0700CD105E75
:10029000EBF032E4CD16CD19EBFE5468697320699A
:1002A00073206E6F74206120626F6F7461626C6581
:1002B000206469736B2E2020506C65617365206922
:1002C0006E73657274206120626F6F7461626C6519
:1002D00020666C6F70707920616E640D0A707265B3
:1002E000737320616E79206B657920746F2074724E
:1002F0007920616761696E202E2E2E200D0A000084
:1003000011241FBECFEFDAE0DEBFCDBF20E030E02A
:1003100080E80FB6F89480936100209361000FBECF
:1003200081E011E0A0E0B1E0E4EFF3E202C005906B
:100330000D92A836B107D9F722E0A8E6B1E001C0D6
:100340001D92A83CB207E1F703D00C94F81158CEE7
:100350000E94070B20E030E080E80FB6F89480930D
:100360006100209361000FBE85B7806885BF85BF9F
:1003700026D280E090E00895869A6E98769A0E9440
:100380001A0BE2EEF0E08081846080830895809112
:10039000A3028F5F8093A302089582E08093E90017
:1003A0009091F1008091F100833529F481E0953539
:1003B00019F480E001C081E09091F100923409F0DD
:1003C00081E09091F100933411F48823A9F0809199
:1003D000E8008B7F8093E8008091E8008F7780931E
:1003E000E80091E09093E9008091EB0080628093B7
:1003F000EB009093BE0208958091F1008093680114
:100400008091F100809369018091F10080936A01ED
:100410008091F10080936B018091F1008093A5029F
:100420008091F1008093A6028091F1008093A70251
:100430008091F1008093A8028091F100882321F03F
:1004400081E08093A20202C01092A2028091F1008A
:100450008093A1028091A402811102C01092A10296
:100460008091F100E9EAF2E08091F100819382E06D
:10047000E93BF807C9F78091E8008B7F8093E8009B
:100480008091E8008F778093E8008091A20281300C
:1004900011F48093E900DFD4813089F08091EB0082
:1004A00080628093EB008091A202813011F0E2E043
:1004B00001C0E1E0F0E0E354FD4F81E08083089566
:1004C000CF9381E08093E900C1E08091EB0085FF4C
:1004D00009C01092E9008091E80083FDF3D4C09335
:1004E000E900F3CF82E08093E900C2E08091EB0065
:1004F00085FF09C01092E9008091E80083FDE2D4F5
:10050000C093E900F3CF81E08093E9008091E80097
:1005100085FD05C08091EB0080FDF8CF34C085E5F6
:100520008093F10083E58093F10092E49093F100D1
:100530008093F100809168018093F10080916901BE
:100540008093F10080916A018093F10080916B01AA
:100550008093F1008091A5028093F1008091A60222
:100560008093F1008091A7028093F1008091A8020E
:100570008093F1008091B9028093F1008091E800AE
:100580008F778093E800CF9108958091C4028823EB
:1005900049F082E08093E9008091E80082FF02C088
:1005A000FCDE8ECF0895CF93DF9300D0CDB7DEB7BA
:1005B0002091F1009091F100813211F56F3F09F027
:1005C00053C0211151C091114FC08091F100898316
:1005D0008091F1008A8389819A81892B09F044C036
:1005E0008091E800877F8093E8008091E8008E7F0B
:1005F0008093E8008091E80080FFFCCF81E035C067
:10060000813A91F56E3F81F521112EC091112CC0D8
:100610008091F10089838091F1008A8389819A8198
:10062000892B11F58091E800877F8093E800109274
:10063000F1008091E8008E7F8093E8008091E800CF
:1006400080FFFCCF8091E80082FFFCCF8091E80022
:100650008B7F8093E8008091E8008F778093E8009B
:1006600081E08093A40201C080E00F900F90DF91A1
:10067000CF910895CF93DF93C9EED0E081E08883D6
:1006800064E381E8A1D782E0888364E380E8DF91B6
:10069000CF919AC780E00895892B19F581E0809366
:1006A000E9008091EB0080618093EB0092E09093F1
:1006B000EA001092EA008091EB0088608093EB00E2
:1006C0009093E9008091EB0080618093EB0084E0DF
:1006D0008093EA001092EA008091EB00886080939A
:1006E000EB000895833021F5613089F050F06230DD
:1006F000A1F06330E9F48CE18093C50288EC90E0CE
:1007000011C084E08093C50284EC90E00BC08AE1C4
:100710008093C50284E091E005C080E28093C50229
:1007200084EE90E09093C7028093C60281E0089522
:1007300080E00895811101C07EC781E090E00895B6
:10074000811102C0CB0180C781E090E00895811142
:1007500001C084C781E00895CF92DF92EF92FF92AB
:100760006A017B01811108C0A901C701B601FF9090
:10077000EF90DF90CF9079C781E090E0FF90EF900D
:10078000DF90CF900895CF92DF92EF92FF926A01AF
:100790007B01811108C0A901C701B601FF90EF904C
:1007A000DF90CF906BC781E090E0FF90EF90DF90FB
:1007B000CF9008952FD6E0CD33D6E7DEFDCFFADF18
:1007C000FBDFE1EFF0E08CE180838AE08083108240
:1007D00085E0808310821082108210821082108245
:1007E000108281E080830895CF93C82F81111092E9
:1007F000F1006093F1001092F1008091A102A7DF57
:10080000882321F080E88093F10002C01092F1006B
:10081000CC2331F01092F1001092F1001092F1000F
:100820001092F100CF91089591E09093F1009AE039
:100830009093F10090E89093F10023E02093F10071
:100840001092F1001092F1001092F1001092F1005C
:100850008D3040F09093F1001092F1001092F10071
:100860001092F10008951092B902EAEBF2E01082C2
:100870001182128208950F931F93CF93DF93CDB708
:10088000DEB762970FB6F894DEBF0FBECDBF809182
:10089000AD02833108F082E190E799831A8290914A
:1008A000BA029B831C821D821E821F829AE0988757
:1008B00019861A861B861C869091BB029D87909193
:1008C000BC029E871F86188A198A1A8A9E012F5F8A
:1008D0003F4FF9019E2F921B981720F4919190930E
:1008E000F100F8CF9091E8009F779093E800409155
:1008F000A5025091A6026091A7027091A8028A01F8
:100900009B01081B1109210931090093A5021093CD
:10091000A6022093A7023093A802A5DF81E0629689
:100920000FB6F894DEBF0FBECDBFDF91CF911F9100
:100930000F91089581E08093B902EAEBF2E082E042
:1009400080838AE381831282089581E08093B902D3
:10095000EAEBF2E086E0808388E2818312820895E8
:1009600081E08093B902EAEBF2E084E080831182B7
:10097000128208958091A102DDDE8230910539F066
:100980008330910531F0892B31F46DDF05C0D2DF62
:1009900003C0DBDF01C0E4DF81E00895CF93DF9384
:1009A00000D000D0CDB7DEB7BE016F5F7F4F809122
:1009B000A102C6DE82309105A9F183309105A1F133
:1009C000892BA1F58C818093F1008B818093F100BC
:1009D0008A818093F10089818093F1001092F10067
:1009E0001092F10082E08093F1001092F10080916A
:1009F000E8008F778093E8008091A5029091A6028D
:100A0000A091A702B091A8020897A109B10980930B
:100A1000A5029093A602A093A702B093A80223DF99
:100A200081E006C087DF03C090DF01C099DF80E06E
:100A30000F900F900F900F90DF91CF91089581E06C
:100A40008093B902EAEBF2E087E0808387E281835A
:100A50001282089581E08093B902EAEBF2E085E02A
:100A6000808384E28183128208950F931F93809183
:100A7000AA02837021F48091AB02882319F0EADF87
:100A800080E040C09091AD02913608F090E620E5FC
:100A900031E080E08917C9F0883029F0803131F0E9
:100AA000803231F407C02CE631E002C02CE531E0A1
:100AB000F90102C0E8E5F1E09F012F5F3F4FE491AB
:100AC000E093F1008F5F843229F79091E8009F77DF
:100AD0009093E8004091A5025091A6026091A70270
:100AE0007091A8028A019B01081B11092109310993
:100AF0000093A5021093A6022093A7023093A802A8
:100B0000B2DE81E01F910F9108951F93CF93DF9381
:100B100000D000D000D0CDB7DEB78091AB028C837F
:100B20008091AC028B838091AD028A838091AE026A
:100B300089838091B0028E838091B1028D83109160
:100B4000A202111102C086DF56C08091A5029091C9
:100B5000A602A091A702B091A8020097A105B10535
:100B600041F48D819E81892B11F47DDE3CC072DFC2
:100B70003AC039E0B695A795979587953A95D1F7FC
:100B800049815A816B817C819C018091A102E4DDC5
:100B90008230910551F18330910549F1892B49F556
:100BA0004D815E8160E070E08091A5029091A60287
:100BB000A091A702B091A80229E0B695A7959795B4
:100BC00087952A95D1F7481759076A077B0711F4CB
:100BD0004ADE01C03FDF1092A5021092A6021092D9
:100BE000A7021092A80211E006C0A4DE03C0ADDE89
:100BF00001C0B6DE10E0812F26960FB6F894DEBF56
:100C00000FBECDBFDF91CF911F910895CF93DF939A
:100C100000D000D000D0CDB7DEB78091AB028C837E
:100C20008091AC028B838091AD028A838091AE0269
:100C300089838091B0028E838091B1028D838091EF
:100C4000A202813011F406DF64C08091A502909168
:100C5000A602A091A702B091A802892B8A2B8B2B08
:100C600049F48D819E81892B11F4FDDD01C0F2DEF6
:100C700081E050C08091A1026ADD813011F4DFDE95
:100C800048C08091A5029091A602A091A702B091C0
:100C9000A80239E0B695A795979587953A95D1F72B
:100CA00049815A816B817C819C018091A1026BDD1D
:100CB0008230910549F18330910541F1892B41F54D
:100CC0004D815E8160E070E08091A5029091A60266
:100CD000A091A702B091A80229E0B695A795979593
:100CE00087952A95D1F7481759076A077B0711F4AA
:100CF000BADD01C0AFDE1092A5021092A6021092DA
:100D0000A7021092A802B4CF15DE03C01EDE01C0F8
:100D100027DE80E026960FB6F894DEBF0FBECDBF6B
:100D2000DF91CF910895CF93882319F0C091B1023C
:100D300002C0C091AD029091AB029F739C3151F003
:100D40009F33E1F0913009F082C06FE04DDD8C2FD0
:100D50006BDD03C06FE048DD34DD8091E8008F7704
:100D60008093E8008091A5029091A602A091A7022D
:100D7000B091A8024097A109B1094CC08823D1F0D5
:100D8000CD3118F46EEF6C0F01C06BE12DDDC83072
:100D900061F58091E8008F778093E8008091A5024B
:100DA0009091A602A091A702B091A8020897A1096C
:100DB000B10930C0CC3118F46FEF6C0F01C06BE19A
:100DC00080E012DDC43089F48091E8008F77809351
:100DD000E8008091A5029091A602A091A702B0918F
:100DE000A8020497A109B10915C08C2F1DDDCD30D3
:100DF000E0F0E7DC8091E8008F778093E800809155
:100E0000A5029091A602A091A702B091A8024C97CA
:100E1000A109B1098093A5029093A602A093A7020D
:100E2000B093A80220DD81E014C08091E8008F77A4
:100E30008093E8008091A5029091A602A091A7025C
:100E4000B091A8028C1B9109A109B109E3CF02DE80
:100E500080E0CF9108958091A9028A3209F4D6CE1C
:100E6000883209F452CE8B31E9F060F48330B1F06E
:100E700018F481111AC07ECD823189F08A31A9F42B
:100E800080E00FC0853261F018F48E3159F00DC04A
:100E90008F3241F08A3549F481E003C0ECCCE5CDD6
:100EA0007DCD41CFE0DC81E0089581E08093B902FF
:100EB00085E08093BA0280E28093BB021092BC026C
:100EC00080E008950F931F93CF93DF9300D0CDB7A9
:100ED000DEB78091E8008B7F8093E8001091F100ED
:100EE0000091F100802F90E08C30910508F0FEC158
:100EF000FC01EA5AFF4F0C94BB11103809F0F6C1FF
:100F00006091F1008091F100813041F0823081F4F4
:100F100080E28093C5028EE191E005C082E180937A
:100F2000C5028EE391E09093C7028093C60204C08D
:100F3000D9DB882309F4DAC18091F1008091F100B6
:100F40008091F10089838091F1008A838091E8008B
:100F5000877F8093E8008091C50229813A81482FDC
:100F600050E04217530720F48F7391E021F002C044
:100F70002093C50290E08091E8008F7E8093E80086
:100F80008091C502811104C0913009F04EC037C074
:100F90008091E80084FDF8CF8091E80080FD08C0D2
:100FA0008091E80084FD04C08091D90080FDF4CFD9
:100FB00081E42091C5022223B1F08150A1F0E0919B
:100FC000C602F091C7029F012F5F3F4F3093C702C7
:100FD0002093C602E491E093F1002091C5022150D4
:100FE0002093C502E6CF8091E80084FDCDCF8091AB
:100FF000D90080FFC9CF8091E8008E7FBFCF80915C
:10100000E80084FD12C08091E80080FD04C080915A
:10101000D90080FDF8CF8091E8008E7F8093E800B2
:1010200004C08091D90080FF04C08091E80084FF53
:10103000F8CF8091E8008F7E8093E8008091E800EF
:101040008B7F46C0103809F051C18091E800877F3E
:101050008093E8008091C4028093F1008091E800C1
:101060008E7F8093E8008091E8008F778093E8007E
:101070008091E80082FD24C08091D90080FDF8CFE6
:101080001FC08091F1008091F100E091F1001138D2
:1010900009F0CCC08091E800877F8093E80010922F
:1010A000F1001092F1008091E8008E7F8093E800BB
:1010B0008091E80082FD04C08091D90080FDF8CFC6
:1010C0008091E8008B7F8093E8008091E8008F7723
:1010D0008093E8001DC1111109C18091F100909128
:1010E000E30090788F77892B8093E3008091E8006C
:1010F000877F8093E8008091E8008E7F8093E800EE
:101100008091E80080FD04C08091D90080FDF8CF77
:101110008091E30080688093E300FAC01111E6C07B
:101120009091F100923008F0E1C08091E800877F53
:101130008093E8009093C4028091E8008E7F8093B2
:10114000E8008091C4020F900F90DF91CF911F9122
:101150000F9190CA1123A9F1123009F0C7C08091F4
:10116000F1009091F1008111C1C0E091F100EF77A1
:10117000E093E9008091EB0080FF40C0EE23A9F0EE
:101180008091EB0080618093EB0081E090E00E2E77
:1011900001C0880F0A94EAF78093EA001092EA00EF
:1011A0008091EB0088608093EB001092E900F0E002
:1011B000E354FD4F108231C0112319F0123021F099
:1011C00095C08091F10092C08091F1009091F10062
:1011D00081118CC0E091F100EF7751F48091EB0028
:1011E00080628093EB008091E800877F8093E80025
:1011F000E093E9008091EB0080FD03C01092E900CC
:1012000075C08091EB0080628093EB001092E90042
:10121000F0E0E354FD4F81E080838091E800877F18
:101220008093E8008091E8008E7F52CF123821F041
:10123000103809F05BC02ECF8091E800877F809343
:10124000E800EF77F0E0E354FD4F80818093F100F8
:1012500028CF113809F04AC08091F1008091F10047
:101260009091F10099839091F1009A8381113EC091
:101270008091E800877F8093E80089819A810ADA6B
:101280008093F1008091E8008E7F8093E800809148
:10129000E80082FD15CF8091D90080FDF8CF10CFF6
:1012A000113021F56091F1008091F1009091F100F1
:1012B00099839091F1009A83811118C08091E80080
:1012C000877F8093E80089819A81E6D91092E900AE
:1012D0008091E8008E7F8093E8008091E80080FD97
:1012E00017C08091D90080FDF8CF12C0602F812FE8
:1012F0005AD981110DC08091EB0080628093EB0080
:101300008091E800877F8093E80081E08093BD02B0
:101310000F900F90DF91CF911F910F9108957894C6
:10132000E8EDF0E080818F76808380818069808322
:101330007894089582E189BD09B400FEFDCFF89448
:101340008091D8008F7D8093D80054D18091E000A7
:101350008E7F8093E00078948091E200816080939A
:10136000E2008091E20088608093E200089580911D
:10137000D90080FF13C080916E0181110FC081E000
:1013800080936E0110926C0180916F0190917001B9
:1013900082609093700180936F01CCDF8091D900BF
:1013A00080FD1BC080916E018130B9F410926E01F6
:1013B0001092C40280916F019091700184609093AB
:1013C000700180936F018091E00081608093E00064
:1013D0008091D80080628093D80080916F019091B5
:1013E000700190FF10C080916F01909170019E7FFD
:1013F0009093700180936F0181E08093EA001092D6
:10140000EA001092C4021092E9008091E80083FD86
:1014100059CD0895E7EDF0E08081816080837FCF32
:10142000A6CF1F920F920FB60F9211242F933F93C6
:101430004F935F936F937F938F939F93AF93BF93DC
:10144000EF93FF938091E10082FF09C08091E20059
:1014500082FF05C08BEF8093E1000E94C70180915D
:10146000E10080FF40C08091E20080FF3CC080919D
:101470006C018130D9F48091C4028823B9F0809145
:10148000E2008E7F8093E2008FEE8093E1008091F6
:10149000E20080618093E20089B58D7F89BD19BC2F
:1014A0008091D80080628093D8001DC08FEE809319
:1014B000E10080916F0190917001806290937001C2
:1014C00080936F018EEF8093E1008091E200806154
:1014D0008093E2008091D80080628093D80089B523
:1014E0008D7F89BD19BC8091E10084FF29C0809166
:1014F000E20084FF25C009B400FE1CC08091D80022
:101500008F7D8093D8008FEE8093E1008091E20080
:101510008F7E8093E20080916F01909170018064D2
:101520009093700180936F018091E20081608093BD
:10153000E20006C082E189BD09B400FEFDCFDECF26
:101540008091E10085FF1AC08091E20085FF16C0FE
:101550008091E2008F7E8093E2008FED8093E10026
:101560008091E2008F7D8093E20080916F019091E5
:10157000700180689093700180936F018091E10009
:1015800083FF11C08091E20083FF0DC087EF80933D
:10159000E10030D080916F01909170019160909343
:1015A000700180936F01FF91EF91BF91AF919F9177
:1015B0008F917F916F915F914F913F912F910F90FC
:1015C0000FBE0F901F901895EBEEF0E090819160A8
:1015D00090838093EC00EDEEF0E080818270682BC8
:1015E00060838081826080838091EE00881F8827DD
:1015F000881F08951092E9008091EB0080FD05C0DE
:101600001092E90060E382E0DFCF80E008958FB7B9
:10161000F89497EF94BF0FB6F894A8959091600056
:10162000986190936000109260000FBE87FF01C028
:10163000789408952CC039D0813019F082E090E080
:10164000089580E090E0089541E450E060E070E0AB
:10165000FC014083518362837383EDCF8CB186FBA1
:10166000882780F991E08927089521D021E030E092
:10167000882311F020E030E0C9010895CAD021E0AC
:1016800030E0882311F020E030E0C90108950FD444
:101690008EEF93E07ED6813C23E0920710F080EC41
:1016A00093E074D17DD1C0D427C281E008959F9288
:1016B000AF92BF92CF92DF92EF92FF920F931F9360
:1016C000CF93DF9300D0CDB7DEB76A017B01FE2C4C
:1016D000EE24FF0CA9D410D28E9A870188E0A82EA0
:1016E000F894B12CF801003C110518F4E15CFD4FB1
:1016F00007C0EE5FF140EB30F10530F4EC5CFD4FDC
:10170000E491E093F10053C0992493949B0C0C3323
:1017100024E0120761F43FD189839A838093F1001A
:10172000B92C8A818093F1000DE314E040C00C379E
:1017300084E0180761F425D189839A838093F100AE
:10174000B92C8A818093F1000DE714E030C0F801D4
:10175000F450E03CF10558F4EC58FE4FE4910B36A0
:1017600024E0120771F66699CCCFE160CACF01156B
:101770008AE0180748F00FD1965F0817190720F480
:10178000C8019A50B9D20EC0C8019E50803C23E0D7
:10179000920710F4F6D506C0C80192518231910526
:1017A00020F4BDD28093F10002C01092F1000F5FCF
:1017B0001F4FB3948FE38B1508F094CF8091E8000E
:1017C0008F778093E80078948091E80085FD07C0CA
:1017D0009091EB00892F817090FDF6CF0CC0AA94F8
:1017E000A1107ECF2EEFF21A81E0C81AD10809F0BD
:1017F00074CF8E9881E00F900F90DF91CF911F9161
:101800000F91FF90EF90DF90CF90BF90AF909F909F
:1018100008955F926F927F928F929F92AF92BF9244
:10182000CF92DF92EF92FF920F931F93CF93DF93AC
:10183000CDB7DEB7C254D1090FB6F894DEBF0FBEE4
:10184000CDBF5A016B01DC2CCC24DD0C0CB106FBA6
:10185000002700F98E9A7E0121E4E20EF11C20ECB3
:10186000822E23E0922E360188E0582E8091E800E7
:1018700085FD07C09091EB00892F817090FDF6CF18
:1018800069C0F894011109C0FE0131968091F10000
:101890008193EE15FF05D1F746C010E0B3018091AA
:1018A000F100E1E0F0E0EC0FFD1FE10FF11D80839E
:1018B0009CE7691694E0790621F5F70180831F5FA4
:1018C0008091F100E1E0F0E0EC0FFD1FE10FF11D70
:1018D0008083F701818380819181813C934018F05E
:1018E000F70191828082F70160807180C3014ED040
:1018F000B3018EEF93E069D553D096D3FDD06DE759
:1019000074E03B01FFEF6F1A7F0A1F5F103430F263
:101910006F537E40603C23E0720728F440E450E0BF
:10192000CE0101963BD58091E8008B7F8093E80043
:101930008091E8008F778093E80078945A94511052
:1019400095CF8EEFD81A91E0A91AB10809F08BCF84
:101950008E9881E0CE5BDF4F0FB6F894DEBF0FBEEE
:10196000CDBFDF91CF911F910F91FF90EF90DF904E
:10197000CF90BF90AF909F908F907F906F905F902F
:101980000895809171019091720108959093720170
:10199000809371010895809173019091740108956D
:1019A0009F92AF92BF92CF92DF92EF92FF920F93EE
:1019B0001F93CF93DF93E3E7F2E0A3E5B2E0119248
:1019C00011921D921D9282E0E339F807C1F783E579
:1019D00092E0E3E4F2E011928E179F07E1F7109294
:1019E0003F02A0907101B090720199249394C0E0DD
:1019F000D0E0E92CF12CEE0CFF1CF701ED58FD4F67
:101A0000D183C0838E010A151B0509F469C06801E2
:101A10009FEFC91AD90AC801B4D48D3021F08601CC
:101A20008A3089F706C0AC14BD0409F459C00E5FB2
:101A30001F4FCE01A6D4833209F040C0CE010196DB
:101A4000A0D48133E9F47E01E3E0EE0EF11C8FE3D4
:101A5000C82E82E0D82E2796C70193D48332C1F1D5
:101A60008032B1F18D30A1F18A3091F1FFEFEF1AA0
:101A7000FF0AEC16FD0661F1F60181936F01ECCFD0
:101A8000823331F57E01F3E0EF0EF11C6E0183E14C
:101A9000C80ED11CC3E4D2E0C70173D48332C1F0B5
:101AA0008032B1F08D30A1F08A3091F09FEFE91AC9
:101AB000F90AEC14FD0461F08993EECFF701ED5AB9
:101AC000FD4FC095D095CC0EDD1ED182C08293947F
:101AD000EFE0E91528F00A151B0511F0E80189CFA0
:101AE000DF91CF911F910F91FF90EF90DF90CF90FA
:101AF000BF90AF909F9008958F929F92AF92BF92A8
:101B0000CF92DF92EF92FF920F931F93CF93DF93C9
:101B1000CDB7DEB7C055D1090FB6F894DEBF0FBE02
:101B2000CDBF98E1E0E0F1E0DE015E9601900D921C
:101B30009A95E1F79DE1E8E1F1E0DE01119601906F
:101B40000D929A95E1F797E1E5E3F1E0DE01D69693
:101B500001900D929A95E1F740914C0150914D0101
:101B600060914E0170914F0161964CAF5DAF6EAFC9
:101B70007FAF6197882359F090E0880F991FFC018F
:101B8000ED5AFD4FC080D180C114D10449F41092A8
:101B9000760110927501109274011092730198C031
:101BA0001092760110927501BE01625E7F4FA7E729
:101BB000B1E0FB019F01261B370B4191442311F03B
:101BC0004D93F8CFD901A958BE4FEFE3F2E0A90138
:101BD0004F5352409A012E0F3F1F6191662311F01F
:101BE0006D93F8CF3093760120937501D901A958F0
:101BF000BE4FFE0131962E1B3F0BA9014E0F5F1FFA
:101C00006191662311F06D93F8CFDA01A958BE4FA8
:101C1000E3E4F2E0435452409A012E0F3F1F6191DA
:101C2000662311F06D93F8CF309376012093750100
:101C3000D901A958BE4FFE01F6962E1B3F0BB901E4
:101C40006E0F7F1F4191442311F04D93F8CF709395
:101C5000760160937501A12CB12C8C010D581D4F9C
:101C6000809075019090760174018FEFE81AF80A60
:101C7000F0927601E0927501F801808191818A0DE0
:101C80009B1D7FD3F401E958FE4F8083FFEFAF1A0D
:101C9000BF0ACA14DB0421F7D701A958BE4FFE01C1
:101CA000E35BFF4FEE1AFF0AC7018E0F9F1F2191C2
:101CB000222311F02D93F8CF909376018093750134
:101CC0008B589C4D8A569042909374018093730177
:101CD000C05BDF4F0FB6F894DEBF0FBECDBFDF9104
:101CE000CF911F910F91FF90EF90DF90CF90BF9019
:101CF000AF909F908F90089520917501309176015B
:101D00008217930728F4FC01E958FE4F808108955B
:101D1000821B930BFC01E659FF4D849108950F93AC
:101D20001F93CF93DF93CDB7DEB72F970FB6F894FD
:101D3000DEBF0FBECDBF8C0193D1892B69F48FE03C
:101D4000E0E5F1E0DE01119601900D928A95E1F750
:101D50000E30110568F014C088E0EFE5F1E0DE0117
:101D6000119601900D928A95E1F70730110540F424
:101D7000E1E0F0E0EC0FFD1FE00FF11F80810CC0EF
:101D80006AD121E130E0201B310B02C09695879586
:101D90002A95E2F78170805D2F960FB6F894DEBF2A
:101DA0000FBECDBFDF91CF911F910F910895CF92BC
:101DB000DF92EF92FF920F931F93CF93DF93C09127
:101DC0009F02D091A002219709F042C0C3B1C5FB88
:101DD000442740F950E0440F551FCFB1CC1FCC270A
:101DE000CC1F9A012C2BE901AE01440F551FC6B13F
:101DF000C6FBCC24C0F8D12CE601C42BD52BCC0FCC
:101E0000DD1F43B146FBEE24E0F8F12CA7014C2B7B
:101E10005D2B440F551FC3B1C4FB002700F910E030
:101E2000402B512B440F551FC9B1CC1FCC27CC1FC1
:101E30004C2B440F551FC9B1C6FB222720F930E0B7
:101E4000422B532B440F551F9A01CEEF2C2702C073
:101E500020E030E049B144FBAA27A0F9B0E02A2BEA
:101E60003B2B220F331F49B145FBEE27E0F9F0E091
:101E70002E2B3F2B220F331F49B142FB882780F9BD
:101E800090E0822B932B880F991F29B123FB6627A3
:101E900060F970E0862B972B2FE08227DF91CF919E
:101EA0001F910F91FF90EF90DF90CF9008952398AE
:101EB0002B9A53985B9A52985A9A55985D9A5498CF
:101EC0005C9A1B9905C01092A00210929F0214C048
:101ED00081E090E09093A00280939F0256985E9AD2
:101EE00057985F9A24982C9A26982E9A3E98469A4C
:101EF00087988F9A25982D9A5ADF90939C02809309
:101F00009B0290939E0280939D02909396028093F1
:101F10009502909398028093970290939A028093EF
:101F200099021092940210929302F89416BC80E5E4
:101F300087BD82E084BD95E095BD80936E00789466
:101F400008951F920F920FB60F9211240F931F93B3
:101F50002F933F934F935F936F937F938F939F93B1
:101F6000AF93BF93CF93DF93EF93FF9300919702CB
:101F70001091980210939A0200939902C0919502D1
:101F8000D0919602D0939802C093970210DF90935D
:101F9000960280939502C023D1238C239D23209108
:101FA0009D0230919E0290939C0280939B02821727
:101FB000930731F029E230E03093940220939302AA
:101FC00090939E0280939D0280919302909194023F
:101FD000892BA9F08091E00081608093E0008091DE
:101FE00093029091940201979093940280939302AC
:101FF000892B29F48091E0008E7F8093E000FF918F
:10200000EF91DF91CF91BF91AF919F918F917F9190
:102010006F915F914F913F912F911F910F910F9071
:102020000FBE0F901F90189520919B0230919C023B
:1020300080919F029091A002019751F481E020FDD0
:1020400009C0369527958F5F8C30C9F780E00895D9
:10205000822F8F70089580919B0290919C02089529
:1020600080919F029091A0020895232323204F4E38
:102070004C59204348414E47452042454C4F57203C
:10208000494620594F55204B4E4F572057484154F1
:1020900020594F5527524520444F494E472023236E
:1020A000230A0A232073657420626F6F74206368AB
:1020B0006F696365206279206D616B696E67206965
:1020C0007420746865206D656E7520646566617541
:1020D0006C74200A7365742064656661756C743D68
:1020E0002224677275627377697463685F63686FCF
:1020F000696365220A0A23206D616B65207375721E
:1021000065206D656E752069736E27742064697330
:10211000706C617965642C20696E7374616E7420D3
:1021200064656661756C7420626F6F740A736574A0
:102130002074696D656F75745F7374796C653D6D3E
:10214000656E750A7365742074696D656F75743D8D
:10215000300A0A23207072696E7420686967686C9F
:1021600069676874656420626F6F742063686F6963
:102170006365200A636C6561720A0A6563686F2093
:102180002D6E2027426F6F74696E6720270A0A6FD1
:102190006C645F636F6C6F723D2224636F6C6F724F
:1021A0005F6E6F726D616C22202020202020202025
:1021B000202020202020202020202020202020201F
:1021C000232073617665206E6F726D616C20636F82
:1021D0006C6F720A6966205B202D6E2022247B675B
:1021E0007275627377697463685F63686F6963654A
:1021F0005F636F6C6F727D22205D3B207468656E3B
:102200000A20202073657420636F6C6F725F6E6F9D
:10221000726D616C3D2224677275627377697463B5
:10222000685F63686F6963655F636F6C6F722220BC
:1022300020202320686967686C6967687420696674
:1022400020646566696E65640A66690A0A65636882
:102250006F2024677275627377697463685F63685F
:102260006F6963650A0A73657420636F6C6F725FD0
:102270006E6F726D616C3D22246F6C645F636F6C76
:102280006F722220202020202020202020202020AB
:10229000202020202020202320726573746F726517
:1022A000206E6F726D616C20636F6C6F720A656374
:1022B000686F202D6E2027636F6E74696E7565736D
:1022C00020696E20270A0A23207761697420666FCF
:1022D0007220737065636966696564206E756D62EE
:1022E0006572206F66207365636F6E64732C206463
:1022F0006973706C617920636F756E74646F776E4B
:102300000A736C656570202D2D696E746572727527
:10231000707469626C65202D2D766572626F7365CD
:102320002024677275627377697463685F736C6584
:1023300065705F736563730A0A2320726574757232
:102340006E696E6720746F20677275622E636667B0
:102350002C20657865637574696E6720737065639A
:1023600069666965642064656661756C7420656E74
:102370007472790A0A00EE0FFF1F0590F491E02DA8
:102380000994F999FECF92BD81BDF89A992780B53D
:102390000895A8E1B0E042E050E01CC0DC01CB01B0
:1023A00002C02D9105D041505040D8F70895262FF6
:1023B000F999FECF1FBA92BD81BD20BD0FB6F8942A
:1023C000FA9AF99A0FBE01960895F1DF272FF0CF00
:1023D000DC01CB01FC01F999FECF06C0F2BDE1BDE5
:1023E000F89A319600B40D9241505040B8F70895D4
:0423F000F894FFCF8F
:1023F400677275627377697463685F736C6565701F
:102404005F736563733D2700270D0A6772756273F6
:1024140077697463685F63686F6963655F636F6C32
:102424006F723D2700270D0A6772756273776974AE
:1024340063685F63686F6963653D2700270D0A0061
:1024440042696E617279207069636B3A20200031B1
:08245400312D3E313A20000059
:00000001FF
